{
  "contractName": "BasicSecurityToken",
  "abi": [
    {
      "constant": true,
      "inputs": [],
      "name": "mintingFinished",
      "outputs": [
        {
          "name": "",
          "type": "bool"
        }
      ],
      "payable": false,
      "stateMutability": "view",
      "type": "function"
    },
    {
      "constant": true,
      "inputs": [],
      "name": "name",
      "outputs": [
        {
          "name": "",
          "type": "string"
        }
      ],
      "payable": false,
      "stateMutability": "view",
      "type": "function"
    },
    {
      "constant": false,
      "inputs": [
        {
          "name": "_spender",
          "type": "address"
        },
        {
          "name": "_value",
          "type": "uint256"
        }
      ],
      "name": "approve",
      "outputs": [
        {
          "name": "",
          "type": "bool"
        }
      ],
      "payable": false,
      "stateMutability": "nonpayable",
      "type": "function"
    },
    {
      "constant": true,
      "inputs": [
        {
          "name": "_operator",
          "type": "address"
        },
        {
          "name": "_role",
          "type": "string"
        }
      ],
      "name": "checkRole",
      "outputs": [],
      "payable": false,
      "stateMutability": "view",
      "type": "function"
    },
    {
      "constant": true,
      "inputs": [],
      "name": "totalSupply",
      "outputs": [
        {
          "name": "",
          "type": "uint256"
        }
      ],
      "payable": false,
      "stateMutability": "view",
      "type": "function"
    },
    {
      "constant": true,
      "inputs": [],
      "name": "ROLE_WHITELISTED",
      "outputs": [
        {
          "name": "",
          "type": "string"
        }
      ],
      "payable": false,
      "stateMutability": "view",
      "type": "function"
    },
    {
      "constant": false,
      "inputs": [
        {
          "name": "_operator",
          "type": "address"
        }
      ],
      "name": "addAddressToFrozenlist",
      "outputs": [],
      "payable": false,
      "stateMutability": "nonpayable",
      "type": "function"
    },
    {
      "constant": false,
      "inputs": [
        {
          "name": "_operator",
          "type": "address"
        }
      ],
      "name": "addIssuer",
      "outputs": [],
      "payable": false,
      "stateMutability": "nonpayable",
      "type": "function"
    },
    {
      "constant": true,
      "inputs": [
        {
          "name": "_operator",
          "type": "address"
        },
        {
          "name": "_role",
          "type": "string"
        }
      ],
      "name": "hasRole",
      "outputs": [
        {
          "name": "",
          "type": "bool"
        }
      ],
      "payable": false,
      "stateMutability": "view",
      "type": "function"
    },
    {
      "constant": false,
      "inputs": [
        {
          "name": "_operators",
          "type": "address[]"
        }
      ],
      "name": "removeAddressesFromWhitelist",
      "outputs": [],
      "payable": false,
      "stateMutability": "nonpayable",
      "type": "function"
    },
    {
      "constant": false,
      "inputs": [
        {
          "name": "_operator",
          "type": "address"
        }
      ],
      "name": "removeAddressFromWhitelist",
      "outputs": [],
      "payable": false,
      "stateMutability": "nonpayable",
      "type": "function"
    },
    {
      "constant": true,
      "inputs": [],
      "name": "decimals",
      "outputs": [
        {
          "name": "",
          "type": "uint8"
        }
      ],
      "payable": false,
      "stateMutability": "view",
      "type": "function"
    },
    {
      "constant": false,
      "inputs": [
        {
          "name": "_operator",
          "type": "address"
        }
      ],
      "name": "removeAddressFromFrozenlist",
      "outputs": [],
      "payable": false,
      "stateMutability": "nonpayable",
      "type": "function"
    },
    {
      "constant": false,
      "inputs": [
        {
          "name": "_operator",
          "type": "address"
        }
      ],
      "name": "removeIssuer",
      "outputs": [],
      "payable": false,
      "stateMutability": "nonpayable",
      "type": "function"
    },
    {
      "constant": true,
      "inputs": [],
      "name": "whitelistEnabled",
      "outputs": [
        {
          "name": "",
          "type": "bool"
        }
      ],
      "payable": false,
      "stateMutability": "view",
      "type": "function"
    },
    {
      "constant": false,
      "inputs": [
        {
          "name": "_spender",
          "type": "address"
        },
        {
          "name": "_subtractedValue",
          "type": "uint256"
        }
      ],
      "name": "decreaseApproval",
      "outputs": [
        {
          "name": "",
          "type": "bool"
        }
      ],
      "payable": false,
      "stateMutability": "nonpayable",
      "type": "function"
    },
    {
      "constant": true,
      "inputs": [
        {
          "name": "_operator",
          "type": "address"
        }
      ],
      "name": "frozenlist",
      "outputs": [
        {
          "name": "",
          "type": "bool"
        }
      ],
      "payable": false,
      "stateMutability": "view",
      "type": "function"
    },
    {
      "constant": false,
      "inputs": [
        {
          "name": "_newIssuer",
          "type": "address"
        }
      ],
      "name": "transferIssuer",
      "outputs": [],
      "payable": false,
      "stateMutability": "nonpayable",
      "type": "function"
    },
    {
      "constant": true,
      "inputs": [
        {
          "name": "_owner",
          "type": "address"
        }
      ],
      "name": "balanceOf",
      "outputs": [
        {
          "name": "",
          "type": "uint256"
        }
      ],
      "payable": false,
      "stateMutability": "view",
      "type": "function"
    },
    {
      "constant": false,
      "inputs": [],
      "name": "renounceOwnership",
      "outputs": [],
      "payable": false,
      "stateMutability": "nonpayable",
      "type": "function"
    },
    {
      "constant": true,
      "inputs": [],
      "name": "ROLE_ISSUER",
      "outputs": [
        {
          "name": "",
          "type": "string"
        }
      ],
      "payable": false,
      "stateMutability": "view",
      "type": "function"
    },
    {
      "constant": false,
      "inputs": [
        {
          "name": "_operator",
          "type": "address"
        }
      ],
      "name": "addAddressToWhitelist",
      "outputs": [],
      "payable": false,
      "stateMutability": "nonpayable",
      "type": "function"
    },
    {
      "constant": false,
      "inputs": [],
      "name": "finishMinting",
      "outputs": [
        {
          "name": "",
          "type": "bool"
        }
      ],
      "payable": false,
      "stateMutability": "nonpayable",
      "type": "function"
    },
    {
      "constant": true,
      "inputs": [
        {
          "name": "_addr",
          "type": "address"
        }
      ],
      "name": "isIssuer",
      "outputs": [
        {
          "name": "",
          "type": "bool"
        }
      ],
      "payable": false,
      "stateMutability": "view",
      "type": "function"
    },
    {
      "constant": false,
      "inputs": [
        {
          "name": "_operators",
          "type": "address[]"
        }
      ],
      "name": "removeAddressesFromFrozenlist",
      "outputs": [],
      "payable": false,
      "stateMutability": "nonpayable",
      "type": "function"
    },
    {
      "constant": true,
      "inputs": [],
      "name": "owner",
      "outputs": [
        {
          "name": "",
          "type": "address"
        }
      ],
      "payable": false,
      "stateMutability": "view",
      "type": "function"
    },
    {
      "constant": true,
      "inputs": [],
      "name": "ROLE_FROZENLIST",
      "outputs": [
        {
          "name": "",
          "type": "string"
        }
      ],
      "payable": false,
      "stateMutability": "view",
      "type": "function"
    },
    {
      "constant": true,
      "inputs": [],
      "name": "symbol",
      "outputs": [
        {
          "name": "",
          "type": "string"
        }
      ],
      "payable": false,
      "stateMutability": "view",
      "type": "function"
    },
    {
      "constant": true,
      "inputs": [
        {
          "name": "_operator",
          "type": "address"
        }
      ],
      "name": "whitelist",
      "outputs": [
        {
          "name": "",
          "type": "bool"
        }
      ],
      "payable": false,
      "stateMutability": "view",
      "type": "function"
    },
    {
      "constant": false,
      "inputs": [
        {
          "name": "_operators",
          "type": "address[]"
        }
      ],
      "name": "addAddressesToFrozenlist",
      "outputs": [],
      "payable": false,
      "stateMutability": "nonpayable",
      "type": "function"
    },
    {
      "constant": false,
      "inputs": [],
      "name": "enableWhitelist",
      "outputs": [],
      "payable": false,
      "stateMutability": "nonpayable",
      "type": "function"
    },
    {
      "constant": false,
      "inputs": [],
      "name": "disableWhitelist",
      "outputs": [],
      "payable": false,
      "stateMutability": "nonpayable",
      "type": "function"
    },
    {
      "constant": false,
      "inputs": [
        {
          "name": "_spender",
          "type": "address"
        },
        {
          "name": "_addedValue",
          "type": "uint256"
        }
      ],
      "name": "increaseApproval",
      "outputs": [
        {
          "name": "",
          "type": "bool"
        }
      ],
      "payable": false,
      "stateMutability": "nonpayable",
      "type": "function"
    },
    {
      "constant": true,
      "inputs": [
        {
          "name": "_owner",
          "type": "address"
        },
        {
          "name": "_spender",
          "type": "address"
        }
      ],
      "name": "allowance",
      "outputs": [
        {
          "name": "",
          "type": "uint256"
        }
      ],
      "payable": false,
      "stateMutability": "view",
      "type": "function"
    },
    {
      "constant": false,
      "inputs": [
        {
          "name": "_operators",
          "type": "address[]"
        }
      ],
      "name": "addAddressesToWhitelist",
      "outputs": [],
      "payable": false,
      "stateMutability": "nonpayable",
      "type": "function"
    },
    {
      "constant": false,
      "inputs": [
        {
          "name": "_newOwner",
          "type": "address"
        }
      ],
      "name": "transferOwnership",
      "outputs": [],
      "payable": false,
      "stateMutability": "nonpayable",
      "type": "function"
    },
    {
      "inputs": [
        {
          "name": "name",
          "type": "string"
        },
        {
          "name": "symbol",
          "type": "string"
        },
        {
          "name": "enableWhitelist",
          "type": "bool"
        }
      ],
      "payable": false,
      "stateMutability": "nonpayable",
      "type": "constructor"
    },
    {
      "anonymous": false,
      "inputs": [
        {
          "indexed": false,
          "name": "target",
          "type": "address"
        }
      ],
      "name": "FundsFrozen",
      "type": "event"
    },
    {
      "anonymous": false,
      "inputs": [
        {
          "indexed": true,
          "name": "burner",
          "type": "address"
        },
        {
          "indexed": false,
          "name": "value",
          "type": "uint256"
        }
      ],
      "name": "Burn",
      "type": "event"
    },
    {
      "anonymous": false,
      "inputs": [
        {
          "indexed": true,
          "name": "to",
          "type": "address"
        },
        {
          "indexed": false,
          "name": "amount",
          "type": "uint256"
        }
      ],
      "name": "Mint",
      "type": "event"
    },
    {
      "anonymous": false,
      "inputs": [],
      "name": "MintFinished",
      "type": "event"
    },
    {
      "anonymous": false,
      "inputs": [
        {
          "indexed": true,
          "name": "operator",
          "type": "address"
        },
        {
          "indexed": false,
          "name": "role",
          "type": "string"
        }
      ],
      "name": "RoleAdded",
      "type": "event"
    },
    {
      "anonymous": false,
      "inputs": [
        {
          "indexed": true,
          "name": "operator",
          "type": "address"
        },
        {
          "indexed": false,
          "name": "role",
          "type": "string"
        }
      ],
      "name": "RoleRemoved",
      "type": "event"
    },
    {
      "anonymous": false,
      "inputs": [
        {
          "indexed": true,
          "name": "previousOwner",
          "type": "address"
        }
      ],
      "name": "OwnershipRenounced",
      "type": "event"
    },
    {
      "anonymous": false,
      "inputs": [
        {
          "indexed": true,
          "name": "previousOwner",
          "type": "address"
        },
        {
          "indexed": true,
          "name": "newOwner",
          "type": "address"
        }
      ],
      "name": "OwnershipTransferred",
      "type": "event"
    },
    {
      "anonymous": false,
      "inputs": [
        {
          "indexed": true,
          "name": "owner",
          "type": "address"
        },
        {
          "indexed": true,
          "name": "spender",
          "type": "address"
        },
        {
          "indexed": false,
          "name": "value",
          "type": "uint256"
        }
      ],
      "name": "Approval",
      "type": "event"
    },
    {
      "anonymous": false,
      "inputs": [
        {
          "indexed": true,
          "name": "from",
          "type": "address"
        },
        {
          "indexed": true,
          "name": "to",
          "type": "address"
        },
        {
          "indexed": false,
          "name": "value",
          "type": "uint256"
        }
      ],
      "name": "Transfer",
      "type": "event"
    },
    {
      "anonymous": false,
      "inputs": [
        {
          "indexed": false,
          "name": "from",
          "type": "address"
        },
        {
          "indexed": false,
          "name": "to",
          "type": "address"
        },
        {
          "indexed": false,
          "name": "amount",
          "type": "uint256"
        }
      ],
      "name": "FundsReassigned",
      "type": "event"
    },
    {
      "anonymous": false,
      "inputs": [
        {
          "indexed": false,
          "name": "from",
          "type": "address"
        },
        {
          "indexed": false,
          "name": "amount",
          "type": "uint256"
        }
      ],
      "name": "FundsRevoked",
      "type": "event"
    },
    {
      "constant": false,
      "inputs": [
        {
          "name": "account",
          "type": "address"
        },
        {
          "name": "amount",
          "type": "uint256"
        }
      ],
      "name": "mint",
      "outputs": [
        {
          "name": "",
          "type": "bool"
        }
      ],
      "payable": false,
      "stateMutability": "nonpayable",
      "type": "function"
    },
    {
      "constant": false,
      "inputs": [
        {
          "name": "amount",
          "type": "uint256"
        }
      ],
      "name": "burn",
      "outputs": [],
      "payable": false,
      "stateMutability": "nonpayable",
      "type": "function"
    },
    {
      "constant": false,
      "inputs": [
        {
          "name": "account",
          "type": "address"
        },
        {
          "name": "amount",
          "type": "uint256"
        }
      ],
      "name": "burnFrom",
      "outputs": [],
      "payable": false,
      "stateMutability": "nonpayable",
      "type": "function"
    },
    {
      "constant": false,
      "inputs": [
        {
          "name": "recipient",
          "type": "address"
        },
        {
          "name": "amount",
          "type": "uint256"
        }
      ],
      "name": "transfer",
      "outputs": [
        {
          "name": "",
          "type": "bool"
        }
      ],
      "payable": false,
      "stateMutability": "nonpayable",
      "type": "function"
    },
    {
      "constant": false,
      "inputs": [
        {
          "name": "sender",
          "type": "address"
        },
        {
          "name": "recipient",
          "type": "address"
        },
        {
          "name": "amount",
          "type": "uint256"
        }
      ],
      "name": "transferFrom",
      "outputs": [
        {
          "name": "",
          "type": "bool"
        }
      ],
      "payable": false,
      "stateMutability": "nonpayable",
      "type": "function"
    },
    {
      "constant": false,
      "inputs": [
        {
          "name": "from",
          "type": "address"
        },
        {
          "name": "to",
          "type": "address"
        }
      ],
      "name": "reassign",
      "outputs": [],
      "payable": false,
      "stateMutability": "nonpayable",
      "type": "function"
    },
    {
      "constant": false,
      "inputs": [
        {
          "name": "from",
          "type": "address"
        }
      ],
      "name": "revoke",
      "outputs": [],
      "payable": false,
      "stateMutability": "nonpayable",
      "type": "function"
    },
    {
      "constant": false,
      "inputs": [
        {
          "name": "_from",
          "type": "address"
        },
        {
          "name": "_to",
          "type": "address"
        },
        {
          "name": "_value",
          "type": "uint256"
        }
      ],
      "name": "_transfer",
      "outputs": [
        {
          "name": "",
          "type": "bool"
        }
      ],
      "payable": false,
      "stateMutability": "nonpayable",
      "type": "function"
    }
  ],
  "bytecode": "0x60806040526000600760016101000a81548160ff0219169083151502179055503480156200002c57600080fd5b50604051620048f8380380620048f8833981018060405281019080805182019291906020018051820192919060200180519060200190929190505050808383600033600360006101000a81548173ffffffffffffffffffffffffffffffffffffffff021916908373ffffffffffffffffffffffffffffffffffffffff1602179055508260059080519060200190620000c692919062000122565b508160069080519060200190620000df92919062000122565b5080600760006101000a81548160ff021916908360ff16021790555050505080600760026101000a81548160ff02191690831515021790555050505050620001d1565b828054600181600116156101000203166002900490600052602060002090601f016020900481019282601f106200016557805160ff191683800117855562000196565b8280016001018555821562000196579182015b828111156200019557825182559160200191906001019062000178565b5b509050620001a59190620001a9565b5090565b620001ce91905b80821115620001ca576000816000905550600101620001b0565b5090565b90565b61471780620001e16000396000f30060806040526004361061021a576000357c0100000000000000000000000000000000000000000000000000000000900463ffffffff16806305d2035b1461021f57806306fdde031461024e578063095ea7b3146102de5780630988ca8c1461034357806318160ddd146103cc57806318b919e9146103f75780631afe839c1461048757806320694db0146104ca578063217fe6c61461050d57806323b872dd146105ae57806324953eaa14610633578063286dd3f51461069957806330e0789e146106dc578063313ce5671461076157806340c10f191461079257806342966c68146107f7578063459f659a1461082457806347bc70931461086757806351fb012d146108aa5780635fff8cd3146108d9578063661884631461093c578063664944dc146109a15780636849cb9d146109fc57806370a0823114610a3f578063715018a614610a9657806374a8f10314610aad578063794d385014610af057806379cc679014610b805780637b9417c814610bcd5780637d64bcb414610c10578063877b9a6714610c3f5780638b4dd22914610c9a5780638da5cb5b14610d00578063951530f714610d5757806395d89b4114610de75780639b19251a14610e77578063a372b26f14610ed2578063a9059cbb14610f38578063cdfb2b4e14610f9d578063d6b0f48414610fb4578063d73dd62314610fcb578063dd62ed3e14611030578063e2ec6ec3146110a7578063f2fde38b1461110d575b600080fd5b34801561022b57600080fd5b50610234611150565b604051808215151515815260200191505060405180910390f35b34801561025a57600080fd5b50610263611163565b6040518080602001828103825283818151815260200191508051906020019080838360005b838110156102a3578082015181840152602081019050610288565b50505050905090810190601f1680156102d05780820380516001836020036101000a031916815260200191505b509250505060405180910390f35b3480156102ea57600080fd5b50610329600480360381019080803573ffffffffffffffffffffffffffffffffffffffff16906020019092919080359060200190929190505050611201565b604051808215151515815260200191505060405180910390f35b34801561034f57600080fd5b506103ca600480360381019080803573ffffffffffffffffffffffffffffffffffffffff169060200190929190803590602001908201803590602001908080601f01602080910402602001604051908101604052809392919081815260200183838082843782019150505050505091929192905050506112f3565b005b3480156103d857600080fd5b506103e1611374565b6040518082815260200191505060405180910390f35b34801561040357600080fd5b5061040c61137e565b6040518080602001828103825283818151815260200191508051906020019080838360005b8381101561044c578082015181840152602081019050610431565b50505050905090810190601f1680156104795780820380516001836020036101000a031916815260200191505b509250505060405180910390f35b34801561049357600080fd5b506104c8600480360381019080803573ffffffffffffffffffffffffffffffffffffffff1690602001909291905050506113b7565b005b3480156104d657600080fd5b5061050b600480360381019080803573ffffffffffffffffffffffffffffffffffffffff1690602001909291905050506114ff565b005b34801561051957600080fd5b50610594600480360381019080803573ffffffffffffffffffffffffffffffffffffffff169060200190929190803590602001908201803590602001908080601f0160208091040260200160405190810160405280939291908181526020018383808284378201915050505050509192919290505050611606565b604051808215151515815260200191505060405180910390f35b3480156105ba57600080fd5b50610619600480360381019080803573ffffffffffffffffffffffffffffffffffffffff169060200190929190803573ffffffffffffffffffffffffffffffffffffffff1690602001909291908035906020019092919050505061168d565b604051808215151515815260200191505060405180910390f35b34801561063f57600080fd5b50610697600480360381019080803590602001908201803590602001908080602002602001604051908101604052809392919081815260200183836020028082843782019150505050505091929192905050506118dc565b005b3480156106a557600080fd5b506106da600480360381019080803573ffffffffffffffffffffffffffffffffffffffff1690602001909291905050506119c0565b005b3480156106e857600080fd5b50610747600480360381019080803573ffffffffffffffffffffffffffffffffffffffff169060200190929190803573ffffffffffffffffffffffffffffffffffffffff16906020019092919080359060200190929190505050611aa5565b604051808215151515815260200191505060405180910390f35b34801561076d57600080fd5b50610776611cc6565b604051808260ff1660ff16815260200191505060405180910390f35b34801561079e57600080fd5b506107dd600480360381019080803573ffffffffffffffffffffffffffffffffffffffff16906020019092919080359060200190929190505050611cd9565b604051808215151515815260200191505060405180910390f35b34801561080357600080fd5b5061082260048036038101908080359060200190929190505050611ec2565b005b34801561083057600080fd5b50610865600480360381019080803573ffffffffffffffffffffffffffffffffffffffff169060200190929190505050611f85565b005b34801561087357600080fd5b506108a8600480360381019080803573ffffffffffffffffffffffffffffffffffffffff16906020019092919050505061206a565b005b3480156108b657600080fd5b506108bf612171565b604051808215151515815260200191505060405180910390f35b3480156108e557600080fd5b5061093a600480360381019080803573ffffffffffffffffffffffffffffffffffffffff169060200190929190803573ffffffffffffffffffffffffffffffffffffffff169060200190929190505050612184565b005b34801561094857600080fd5b50610987600480360381019080803573ffffffffffffffffffffffffffffffffffffffff169060200190929190803590602001909291905050506122e4565b604051808215151515815260200191505060405180910390f35b3480156109ad57600080fd5b506109e2600480360381019080803573ffffffffffffffffffffffffffffffffffffffff169060200190929190505050612576565b604051808215151515815260200191505060405180910390f35b348015610a0857600080fd5b50610a3d600480360381019080803573ffffffffffffffffffffffffffffffffffffffff1690602001909291905050506125be565b005b348015610a4b57600080fd5b50610a80600480360381019080803573ffffffffffffffffffffffffffffffffffffffff16906020019092919050505061271e565b6040518082815260200191505060405180910390f35b348015610aa257600080fd5b50610aab612766565b005b348015610ab957600080fd5b50610aee600480360381019080803573ffffffffffffffffffffffffffffffffffffffff1690602001909291905050506128d4565b005b348015610afc57600080fd5b50610b056129ff565b6040518080602001828103825283818151815260200191508051906020019080838360005b83811015610b45578082015181840152602081019050610b2a565b50505050905090810190601f168015610b725780820380516001836020036101000a031916815260200191505b509250505060405180910390f35b348015610b8c57600080fd5b50610bcb600480360381019080803573ffffffffffffffffffffffffffffffffffffffff16906020019092919080359060200190929190505050612a38565b005b348015610bd957600080fd5b50610c0e600480360381019080803573ffffffffffffffffffffffffffffffffffffffff169060200190929190505050612afc565b005b348015610c1c57600080fd5b50610c25612be1565b604051808215151515815260200191505060405180910390f35b348015610c4b57600080fd5b50610c80600480360381019080803573ffffffffffffffffffffffffffffffffffffffff169060200190929190505050612d12565b604051808215151515815260200191505060405180910390f35b348015610ca657600080fd5b50610cfe60048036038101908080359060200190820180359060200190808060200260200160405190810160405280939291908181526020018383602002808284378201915050505050509192919290505050612d5a565b005b348015610d0c57600080fd5b50610d15612e3e565b604051808273ffffffffffffffffffffffffffffffffffffffff1673ffffffffffffffffffffffffffffffffffffffff16815260200191505060405180910390f35b348015610d6357600080fd5b50610d6c612e64565b6040518080602001828103825283818151815260200191508051906020019080838360005b83811015610dac578082015181840152602081019050610d91565b50505050905090810190601f168015610dd95780820380516001836020036101000a031916815260200191505b509250505060405180910390f35b348015610df357600080fd5b50610dfc612e9d565b6040518080602001828103825283818151815260200191508051906020019080838360005b83811015610e3c578082015181840152602081019050610e21565b50505050905090810190601f168015610e695780820380516001836020036101000a031916815260200191505b509250505060405180910390f35b348015610e8357600080fd5b50610eb8600480360381019080803573ffffffffffffffffffffffffffffffffffffffff169060200190929190505050612f3b565b604051808215151515815260200191505060405180910390f35b348015610ede57600080fd5b50610f3660048036038101908080359060200190820180359060200190808060200260200160405190810160405280939291908181526020018383602002808284378201915050505050509192919290505050612f83565b005b348015610f4457600080fd5b50610f83600480360381019080803573ffffffffffffffffffffffffffffffffffffffff16906020019092919080359060200190929190505050613067565b604051808215151515815260200191505060405180910390f35b348015610fa957600080fd5b50610fb26132b4565b005b348015610fc057600080fd5b50610fc9613396565b005b348015610fd757600080fd5b50611016600480360381019080803573ffffffffffffffffffffffffffffffffffffffff16906020019092919080359060200190929190505050613478565b604051808215151515815260200191505060405180910390f35b34801561103c57600080fd5b50611091600480360381019080803573ffffffffffffffffffffffffffffffffffffffff169060200190929190803573ffffffffffffffffffffffffffffffffffffffff169060200190929190505050613674565b6040518082815260200191505060405180910390f35b3480156110b357600080fd5b5061110b600480360381019080803590602001908201803590602001908080602002602001604051908101604052809392919081815260200183836020028082843782019150505050505091929192905050506136fb565b005b34801561111957600080fd5b5061114e600480360381019080803573ffffffffffffffffffffffffffffffffffffffff1690602001909291905050506137df565b005b600760019054906101000a900460ff1681565b60058054600181600116156101000203166002900480601f0160208091040260200160405190810160405280929190818152602001828054600181600116156101000203166002900480156111f95780601f106111ce576101008083540402835291602001916111f9565b820191906000526020600020905b8154815290600101906020018083116111dc57829003601f168201915b505050505081565b600081600260003373ffffffffffffffffffffffffffffffffffffffff1673ffffffffffffffffffffffffffffffffffffffff16815260200190815260200160002060008573ffffffffffffffffffffffffffffffffffffffff1673ffffffffffffffffffffffffffffffffffffffff168152602001908152602001600020819055508273ffffffffffffffffffffffffffffffffffffffff163373ffffffffffffffffffffffffffffffffffffffff167f8c5be1e5ebec7d5bd14f71427d1e84f3dd0314c0f7b2291e5b200ac8c7c3b925846040518082815260200191505060405180910390a36001905092915050565b611370826004836040518082805190602001908083835b60208310151561132f578051825260208201915060208101905060208303925061130a565b6001836020036101000a03801982511681845116808217855250505050505090500191505090815260200160405180910390206138b090919063ffffffff16565b5050565b6000600154905090565b6040805190810160405280600981526020017f77686974656c697374000000000000000000000000000000000000000000000081525081565b6113c033612d12565b151561145a576040517f08c379a00000000000000000000000000000000000000000000000000000000081526004018080602001828103825260228152602001807f4973737561626c653a2063616c6c6572206973206e6f7420746865206973737581526020017f657200000000000000000000000000000000000000000000000000000000000081525060400191505060405180910390fd5b611499816040805190810160405280600a81526020017f66726f7a656e6c697374000000000000000000000000000000000000000000008152506138c9565b7f1b994db1a6d945cc30132de7ed4aa052f750744469da7327b463cc0f94df87c081604051808273ffffffffffffffffffffffffffffffffffffffff1673ffffffffffffffffffffffffffffffffffffffff16815260200191505060405180910390a150565b600360009054906101000a900473ffffffffffffffffffffffffffffffffffffffff1673ffffffffffffffffffffffffffffffffffffffff163373ffffffffffffffffffffffffffffffffffffffff161415156115c4576040517f08c379a00000000000000000000000000000000000000000000000000000000081526004018080602001828103825260208152602001807f4f776e61626c653a2063616c6c6572206973206e6f7420746865206f776e657281525060200191505060405180910390fd5b611603816040805190810160405280600681526020017f69737375657200000000000000000000000000000000000000000000000000008152506138c9565b50565b6000611685836004846040518082805190602001908083835b602083101515611644578051825260208201915060208101905060208303925061161f565b6001836020036101000a03801982511681845116808217855250505050505090500191505090815260200160405180910390206139fd90919063ffffffff16565b905092915050565b6000336116cf816040805190810160405280600a81526020017f66726f7a656e6c69737400000000000000000000000000000000000000000000815250611606565b151515611744576040517f08c379a000000000000000000000000000000000000000000000000000000000815260040180806020018281038252600e8152602001807f4163636f756e742066726f7a656e00000000000000000000000000000000000081525060200191505060405180910390fd5b83611784816040805190810160405280600a81526020017f66726f7a656e6c69737400000000000000000000000000000000000000000000815250611606565b1515156117f9576040517f08c379a000000000000000000000000000000000000000000000000000000000815260040180806020018281038252600e8152602001807f4163636f756e742066726f7a656e00000000000000000000000000000000000081525060200191505060405180910390fd5b84600760029054906101000a900460ff161561184f5761184e816040805190810160405280600981526020017f77686974656c69737400000000000000000000000000000000000000000000008152506112f3565b5b61185a878787613a56565b15156118ce576040517f08c379a000000000000000000000000000000000000000000000000000000000815260040180806020018281038252600f8152602001807f5472616e73666572206661696c6564000000000000000000000000000000000081525060200191505060405180910390fd5b600193505050509392505050565b60006118e733612d12565b1515611981576040517f08c379a00000000000000000000000000000000000000000000000000000000081526004018080602001828103825260228152602001807f4973737561626c653a2063616c6c6572206973206e6f7420746865206973737581526020017f657200000000000000000000000000000000000000000000000000000000000081525060400191505060405180910390fd5b600090505b81518110156119bc576119af82828151811015156119a057fe5b906020019060200201516119c0565b8080600101915050611986565b5050565b6119c933612d12565b1515611a63576040517f08c379a00000000000000000000000000000000000000000000000000000000081526004018080602001828103825260228152602001807f4973737561626c653a2063616c6c6572206973206e6f7420746865206973737581526020017f657200000000000000000000000000000000000000000000000000000000000081525060400191505060405180910390fd5b611aa2816040805190810160405280600981526020017f77686974656c6973740000000000000000000000000000000000000000000000815250613e11565b50565b60008060008573ffffffffffffffffffffffffffffffffffffffff1673ffffffffffffffffffffffffffffffffffffffff168152602001908152602001600020548211151515611af457600080fd5b600073ffffffffffffffffffffffffffffffffffffffff168373ffffffffffffffffffffffffffffffffffffffff1614151515611b3057600080fd5b611b81826000808773ffffffffffffffffffffffffffffffffffffffff1673ffffffffffffffffffffffffffffffffffffffff16815260200190815260200160002054613f4590919063ffffffff16565b6000808673ffffffffffffffffffffffffffffffffffffffff1673ffffffffffffffffffffffffffffffffffffffff16815260200190815260200160002081905550611c14826000808673ffffffffffffffffffffffffffffffffffffffff1673ffffffffffffffffffffffffffffffffffffffff16815260200190815260200160002054613f5e90919063ffffffff16565b6000808573ffffffffffffffffffffffffffffffffffffffff1673ffffffffffffffffffffffffffffffffffffffff168152602001908152602001600020819055508273ffffffffffffffffffffffffffffffffffffffff168473ffffffffffffffffffffffffffffffffffffffff167fddf252ad1be2c89b69c2b068fc378daa952ba7f163c4a11628f55a4df523b3ef846040518082815260200191505060405180910390a3600190509392505050565b600760009054906101000a900460ff1681565b6000600360009054906101000a900473ffffffffffffffffffffffffffffffffffffffff1673ffffffffffffffffffffffffffffffffffffffff163373ffffffffffffffffffffffffffffffffffffffff16141515611da0576040517f08c379a00000000000000000000000000000000000000000000000000000000081526004018080602001828103825260208152602001807f4f776e61626c653a2063616c6c6572206973206e6f7420746865206f776e657281525060200191505060405180910390fd5b82611de0816040805190810160405280600a81526020017f66726f7a656e6c69737400000000000000000000000000000000000000000000815250611606565b151515611e55576040517f08c379a000000000000000000000000000000000000000000000000000000000815260040180806020018281038252600e8152602001807f4163636f756e742066726f7a656e00000000000000000000000000000000000081525060200191505060405180910390fd5b83600760029054906101000a900460ff1615611eab57611eaa816040805190810160405280600981526020017f77686974656c69737400000000000000000000000000000000000000000000008152506112f3565b5b611eb58585613f7a565b5060019250505092915050565b33611f02816040805190810160405280600a81526020017f66726f7a656e6c69737400000000000000000000000000000000000000000000815250611606565b151515611f77576040517f08c379a000000000000000000000000000000000000000000000000000000000815260040180806020018281038252600e8152602001807f4163636f756e742066726f7a656e00000000000000000000000000000000000081525060200191505060405180910390fd5b611f813383614160565b5050565b611f8e33612d12565b1515612028576040517f08c379a00000000000000000000000000000000000000000000000000000000081526004018080602001828103825260228152602001807f4973737561626c653a2063616c6c6572206973206e6f7420746865206973737581526020017f657200000000000000000000000000000000000000000000000000000000000081525060400191505060405180910390fd5b612067816040805190810160405280600a81526020017f66726f7a656e6c69737400000000000000000000000000000000000000000000815250613e11565b50565b600360009054906101000a900473ffffffffffffffffffffffffffffffffffffffff1673ffffffffffffffffffffffffffffffffffffffff163373ffffffffffffffffffffffffffffffffffffffff1614151561212f576040517f08c379a00000000000000000000000000000000000000000000000000000000081526004018080602001828103825260208152602001807f4f776e61626c653a2063616c6c6572206973206e6f7420746865206f776e657281525060200191505060405180910390fd5b61216e816040805190810160405280600681526020017f6973737565720000000000000000000000000000000000000000000000000000815250613e11565b50565b600760029054906101000a900460ff1681565b600061218f33612d12565b1515612229576040517f08c379a00000000000000000000000000000000000000000000000000000000081526004018080602001828103825260228152602001807f4973737561626c653a2063616c6c6572206973206e6f7420746865206973737581526020017f657200000000000000000000000000000000000000000000000000000000000081525060400191505060405180910390fd5b6122328361271e565b905061223f838383611aa5565b507f95791f1c4aac383dc757e59da6599f6317ec2579228e1a9eeeafb80d7418c534838383604051808473ffffffffffffffffffffffffffffffffffffffff1673ffffffffffffffffffffffffffffffffffffffff1681526020018373ffffffffffffffffffffffffffffffffffffffff1673ffffffffffffffffffffffffffffffffffffffff168152602001828152602001935050505060405180910390a1505050565b600080600260003373ffffffffffffffffffffffffffffffffffffffff1673ffffffffffffffffffffffffffffffffffffffff16815260200190815260200160002060008573ffffffffffffffffffffffffffffffffffffffff1673ffffffffffffffffffffffffffffffffffffffff16815260200190815260200160002054905080831015156123f6576000600260003373ffffffffffffffffffffffffffffffffffffffff1673ffffffffffffffffffffffffffffffffffffffff16815260200190815260200160002060008673ffffffffffffffffffffffffffffffffffffffff1673ffffffffffffffffffffffffffffffffffffffff1681526020019081526020016000208190555061248a565b6124098382613f4590919063ffffffff16565b600260003373ffffffffffffffffffffffffffffffffffffffff1673ffffffffffffffffffffffffffffffffffffffff16815260200190815260200160002060008673ffffffffffffffffffffffffffffffffffffffff1673ffffffffffffffffffffffffffffffffffffffff168152602001908152602001600020819055505b8373ffffffffffffffffffffffffffffffffffffffff163373ffffffffffffffffffffffffffffffffffffffff167f8c5be1e5ebec7d5bd14f71427d1e84f3dd0314c0f7b2291e5b200ac8c7c3b925600260003373ffffffffffffffffffffffffffffffffffffffff1673ffffffffffffffffffffffffffffffffffffffff16815260200190815260200160002060008873ffffffffffffffffffffffffffffffffffffffff1673ffffffffffffffffffffffffffffffffffffffff168152602001908152602001600020546040518082815260200191505060405180910390a3600191505092915050565b60006125b7826040805190810160405280600a81526020017f66726f7a656e6c69737400000000000000000000000000000000000000000000815250611606565b9050919050565b6125c733612d12565b1515612661576040517f08c379a00000000000000000000000000000000000000000000000000000000081526004018080602001828103825260228152602001807f4973737561626c653a2063616c6c6572206973206e6f7420746865206973737581526020017f657200000000000000000000000000000000000000000000000000000000000081525060400191505060405180910390fd5b600073ffffffffffffffffffffffffffffffffffffffff168173ffffffffffffffffffffffffffffffffffffffff161415151561269d57600080fd5b6126dc336040805190810160405280600681526020017f6973737565720000000000000000000000000000000000000000000000000000815250613e11565b61271b816040805190810160405280600681526020017f69737375657200000000000000000000000000000000000000000000000000008152506138c9565b50565b60008060008373ffffffffffffffffffffffffffffffffffffffff1673ffffffffffffffffffffffffffffffffffffffff168152602001908152602001600020549050919050565b600360009054906101000a900473ffffffffffffffffffffffffffffffffffffffff1673ffffffffffffffffffffffffffffffffffffffff163373ffffffffffffffffffffffffffffffffffffffff1614151561282b576040517f08c379a00000000000000000000000000000000000000000000000000000000081526004018080602001828103825260208152602001807f4f776e61626c653a2063616c6c6572206973206e6f7420746865206f776e657281525060200191505060405180910390fd5b600360009054906101000a900473ffffffffffffffffffffffffffffffffffffffff1673ffffffffffffffffffffffffffffffffffffffff167ff8df31144d9c2f0f6b59d69b8b98abd5459d07f2742c4df920b25aae33c6482060405160405180910390a26000600360006101000a81548173ffffffffffffffffffffffffffffffffffffffff021916908373ffffffffffffffffffffffffffffffffffffffff160217905550565b60006128df33612d12565b1515612979576040517f08c379a00000000000000000000000000000000000000000000000000000000081526004018080602001828103825260228152602001807f4973737561626c653a2063616c6c6572206973206e6f7420746865206973737581526020017f657200000000000000000000000000000000000000000000000000000000000081525060400191505060405180910390fd5b6129828261271e565b905061298f823383611aa5565b507fc2a82dd1d41e6a3fbca08bb53dc147df1241ab3942b5a540e1e2630dd05cf3938282604051808373ffffffffffffffffffffffffffffffffffffffff1673ffffffffffffffffffffffffffffffffffffffff1681526020018281526020019250505060405180910390a15050565b6040805190810160405280600681526020017f697373756572000000000000000000000000000000000000000000000000000081525081565b81612a78816040805190810160405280600a81526020017f66726f7a656e6c69737400000000000000000000000000000000000000000000815250611606565b151515612aed576040517f08c379a000000000000000000000000000000000000000000000000000000000815260040180806020018281038252600e8152602001807f4163636f756e742066726f7a656e00000000000000000000000000000000000081525060200191505060405180910390fd5b612af78383614160565b505050565b612b0533612d12565b1515612b9f576040517f08c379a00000000000000000000000000000000000000000000000000000000081526004018080602001828103825260228152602001807f4973737561626c653a2063616c6c6572206973206e6f7420746865206973737581526020017f657200000000000000000000000000000000000000000000000000000000000081525060400191505060405180910390fd5b612bde816040805190810160405280600981526020017f77686974656c69737400000000000000000000000000000000000000000000008152506138c9565b50565b6000600360009054906101000a900473ffffffffffffffffffffffffffffffffffffffff1673ffffffffffffffffffffffffffffffffffffffff163373ffffffffffffffffffffffffffffffffffffffff16141515612ca8576040517f08c379a00000000000000000000000000000000000000000000000000000000081526004018080602001828103825260208152602001807f4f776e61626c653a2063616c6c6572206973206e6f7420746865206f776e657281525060200191505060405180910390fd5b600760019054906101000a900460ff16151515612cc457600080fd5b6001600760016101000a81548160ff0219169083151502179055507fae5184fba832cb2b1f702aca6117b8d265eaf03ad33eb133f19dde0f5920fa0860405160405180910390a16001905090565b6000612d53826040805190810160405280600681526020017f6973737565720000000000000000000000000000000000000000000000000000815250611606565b9050919050565b6000612d6533612d12565b1515612dff576040517f08c379a00000000000000000000000000000000000000000000000000000000081526004018080602001828103825260228152602001807f4973737561626c653a2063616c6c6572206973206e6f7420746865206973737581526020017f657200000000000000000000000000000000000000000000000000000000000081525060400191505060405180910390fd5b600090505b8151811015612e3a57612e2d8282815181101515612e1e57fe5b90602001906020020151611f85565b8080600101915050612e04565b5050565b600360009054906101000a900473ffffffffffffffffffffffffffffffffffffffff1681565b6040805190810160405280600a81526020017f66726f7a656e6c6973740000000000000000000000000000000000000000000081525081565b60068054600181600116156101000203166002900480601f016020809104026020016040519081016040528092919081815260200182805460018160011615610100020316600290048015612f335780601f10612f0857610100808354040283529160200191612f33565b820191906000526020600020905b815481529060010190602001808311612f1657829003601f168201915b505050505081565b6000612f7c826040805190810160405280600981526020017f77686974656c6973740000000000000000000000000000000000000000000000815250611606565b9050919050565b6000612f8e33612d12565b1515613028576040517f08c379a00000000000000000000000000000000000000000000000000000000081526004018080602001828103825260228152602001807f4973737561626c653a2063616c6c6572206973206e6f7420746865206973737581526020017f657200000000000000000000000000000000000000000000000000000000000081525060400191505060405180910390fd5b600090505b815181101561306357613056828281518110151561304757fe5b906020019060200201516113b7565b808060010191505061302d565b5050565b6000336130a9816040805190810160405280600a81526020017f66726f7a656e6c69737400000000000000000000000000000000000000000000815250611606565b15151561311e576040517f08c379a000000000000000000000000000000000000000000000000000000000815260040180806020018281038252600e8152602001807f4163636f756e742066726f7a656e00000000000000000000000000000000000081525060200191505060405180910390fd5b8361315e816040805190810160405280600a81526020017f66726f7a656e6c69737400000000000000000000000000000000000000000000815250611606565b1515156131d3576040517f08c379a000000000000000000000000000000000000000000000000000000000815260040180806020018281038252600e8152602001807f4163636f756e742066726f7a656e00000000000000000000000000000000000081525060200191505060405180910390fd5b84600760029054906101000a900460ff161561322957613228816040805190810160405280600981526020017f77686974656c69737400000000000000000000000000000000000000000000008152506112f3565b5b6132338686614313565b15156132a7576040517f08c379a000000000000000000000000000000000000000000000000000000000815260040180806020018281038252600f8152602001807f5472616e73666572206661696c6564000000000000000000000000000000000081525060200191505060405180910390fd5b6001935050505092915050565b600360009054906101000a900473ffffffffffffffffffffffffffffffffffffffff1673ffffffffffffffffffffffffffffffffffffffff163373ffffffffffffffffffffffffffffffffffffffff16141515613379576040517f08c379a00000000000000000000000000000000000000000000000000000000081526004018080602001828103825260208152602001807f4f776e61626c653a2063616c6c6572206973206e6f7420746865206f776e657281525060200191505060405180910390fd5b6001600760026101000a81548160ff021916908315150217905550565b600360009054906101000a900473ffffffffffffffffffffffffffffffffffffffff1673ffffffffffffffffffffffffffffffffffffffff163373ffffffffffffffffffffffffffffffffffffffff1614151561345b576040517f08c379a00000000000000000000000000000000000000000000000000000000081526004018080602001828103825260208152602001807f4f776e61626c653a2063616c6c6572206973206e6f7420746865206f776e657281525060200191505060405180910390fd5b6000600760026101000a81548160ff021916908315150217905550565b600061350982600260003373ffffffffffffffffffffffffffffffffffffffff1673ffffffffffffffffffffffffffffffffffffffff16815260200190815260200160002060008673ffffffffffffffffffffffffffffffffffffffff1673ffffffffffffffffffffffffffffffffffffffff16815260200190815260200160002054613f5e90919063ffffffff16565b600260003373ffffffffffffffffffffffffffffffffffffffff1673ffffffffffffffffffffffffffffffffffffffff16815260200190815260200160002060008573ffffffffffffffffffffffffffffffffffffffff1673ffffffffffffffffffffffffffffffffffffffff168152602001908152602001600020819055508273ffffffffffffffffffffffffffffffffffffffff163373ffffffffffffffffffffffffffffffffffffffff167f8c5be1e5ebec7d5bd14f71427d1e84f3dd0314c0f7b2291e5b200ac8c7c3b925600260003373ffffffffffffffffffffffffffffffffffffffff1673ffffffffffffffffffffffffffffffffffffffff16815260200190815260200160002060008773ffffffffffffffffffffffffffffffffffffffff1673ffffffffffffffffffffffffffffffffffffffff168152602001908152602001600020546040518082815260200191505060405180910390a36001905092915050565b6000600260008473ffffffffffffffffffffffffffffffffffffffff1673ffffffffffffffffffffffffffffffffffffffff16815260200190815260200160002060008373ffffffffffffffffffffffffffffffffffffffff1673ffffffffffffffffffffffffffffffffffffffff16815260200190815260200160002054905092915050565b600061370633612d12565b15156137a0576040517f08c379a00000000000000000000000000000000000000000000000000000000081526004018080602001828103825260228152602001807f4973737561626c653a2063616c6c6572206973206e6f7420746865206973737581526020017f657200000000000000000000000000000000000000000000000000000000000081525060400191505060405180910390fd5b600090505b81518110156137db576137ce82828151811015156137bf57fe5b90602001906020020151612afc565b80806001019150506137a5565b5050565b600360009054906101000a900473ffffffffffffffffffffffffffffffffffffffff1673ffffffffffffffffffffffffffffffffffffffff163373ffffffffffffffffffffffffffffffffffffffff161415156138a4576040517f08c379a00000000000000000000000000000000000000000000000000000000081526004018080602001828103825260208152602001807f4f776e61626c653a2063616c6c6572206973206e6f7420746865206f776e657281525060200191505060405180910390fd5b6138ad81614533565b50565b6138ba82826139fd565b15156138c557600080fd5b5050565b613946826004836040518082805190602001908083835b60208310151561390557805182526020820191506020810190506020830392506138e0565b6001836020036101000a038019825116818451168082178552505050505050905001915050908152602001604051809103902061462f90919063ffffffff16565b8173ffffffffffffffffffffffffffffffffffffffff167fbfec83d64eaa953f2708271a023ab9ee82057f8f3578d548c1a4ba0b5b700489826040518080602001828103825283818151815260200191508051906020019080838360005b838110156139bf5780820151818401526020810190506139a4565b50505050905090810190601f1680156139ec5780820380516001836020036101000a031916815260200191505b509250505060405180910390a25050565b60008260000160008373ffffffffffffffffffffffffffffffffffffffff1673ffffffffffffffffffffffffffffffffffffffff16815260200190815260200160002060009054906101000a900460ff16905092915050565b60008060008573ffffffffffffffffffffffffffffffffffffffff1673ffffffffffffffffffffffffffffffffffffffff168152602001908152602001600020548211151515613aa557600080fd5b600260008573ffffffffffffffffffffffffffffffffffffffff1673ffffffffffffffffffffffffffffffffffffffff16815260200190815260200160002060003373ffffffffffffffffffffffffffffffffffffffff1673ffffffffffffffffffffffffffffffffffffffff168152602001908152602001600020548211151515613b3057600080fd5b600073ffffffffffffffffffffffffffffffffffffffff168373ffffffffffffffffffffffffffffffffffffffff1614151515613b6c57600080fd5b613bbd826000808773ffffffffffffffffffffffffffffffffffffffff1673ffffffffffffffffffffffffffffffffffffffff16815260200190815260200160002054613f4590919063ffffffff16565b6000808673ffffffffffffffffffffffffffffffffffffffff1673ffffffffffffffffffffffffffffffffffffffff16815260200190815260200160002081905550613c50826000808673ffffffffffffffffffffffffffffffffffffffff1673ffffffffffffffffffffffffffffffffffffffff16815260200190815260200160002054613f5e90919063ffffffff16565b6000808573ffffffffffffffffffffffffffffffffffffffff1673ffffffffffffffffffffffffffffffffffffffff16815260200190815260200160002081905550613d2182600260008773ffffffffffffffffffffffffffffffffffffffff1673ffffffffffffffffffffffffffffffffffffffff16815260200190815260200160002060003373ffffffffffffffffffffffffffffffffffffffff1673ffffffffffffffffffffffffffffffffffffffff16815260200190815260200160002054613f4590919063ffffffff16565b600260008673ffffffffffffffffffffffffffffffffffffffff1673ffffffffffffffffffffffffffffffffffffffff16815260200190815260200160002060003373ffffffffffffffffffffffffffffffffffffffff1673ffffffffffffffffffffffffffffffffffffffff168152602001908152602001600020819055508273ffffffffffffffffffffffffffffffffffffffff168473ffffffffffffffffffffffffffffffffffffffff167fddf252ad1be2c89b69c2b068fc378daa952ba7f163c4a11628f55a4df523b3ef846040518082815260200191505060405180910390a3600190509392505050565b613e8e826004836040518082805190602001908083835b602083101515613e4d5780518252602082019150602081019050602083039250613e28565b6001836020036101000a038019825116818451168082178552505050505050905001915050908152602001604051809103902061468d90919063ffffffff16565b8173ffffffffffffffffffffffffffffffffffffffff167fd211483f91fc6eff862467f8de606587a30c8fc9981056f051b897a418df803a826040518080602001828103825283818151815260200191508051906020019080838360005b83811015613f07578082015181840152602081019050613eec565b50505050905090810190601f168015613f345780820380516001836020036101000a031916815260200191505b509250505060405180910390a25050565b6000828211151515613f5357fe5b818303905092915050565b60008183019050828110151515613f7157fe5b80905092915050565b6000600360009054906101000a900473ffffffffffffffffffffffffffffffffffffffff1673ffffffffffffffffffffffffffffffffffffffff163373ffffffffffffffffffffffffffffffffffffffff16141515613fd857600080fd5b600760019054906101000a900460ff16151515613ff457600080fd5b61400982600154613f5e90919063ffffffff16565b600181905550614060826000808673ffffffffffffffffffffffffffffffffffffffff1673ffffffffffffffffffffffffffffffffffffffff16815260200190815260200160002054613f5e90919063ffffffff16565b6000808573ffffffffffffffffffffffffffffffffffffffff1673ffffffffffffffffffffffffffffffffffffffff168152602001908152602001600020819055508273ffffffffffffffffffffffffffffffffffffffff167f0f6798a560793a54c3bcfe86a93cde1e73087d944c0ea20544137d4121396885836040518082815260200191505060405180910390a28273ffffffffffffffffffffffffffffffffffffffff16600073ffffffffffffffffffffffffffffffffffffffff167fddf252ad1be2c89b69c2b068fc378daa952ba7f163c4a11628f55a4df523b3ef846040518082815260200191505060405180910390a36001905092915050565b6000808373ffffffffffffffffffffffffffffffffffffffff1673ffffffffffffffffffffffffffffffffffffffff1681526020019081526020016000205481111515156141ad57600080fd5b6141fe816000808573ffffffffffffffffffffffffffffffffffffffff1673ffffffffffffffffffffffffffffffffffffffff16815260200190815260200160002054613f4590919063ffffffff16565b6000808473ffffffffffffffffffffffffffffffffffffffff1673ffffffffffffffffffffffffffffffffffffffff1681526020019081526020016000208190555061425581600154613f4590919063ffffffff16565b6001819055508173ffffffffffffffffffffffffffffffffffffffff167fcc16f5dbb4873280815c1ee09dbd06736cffcc184412cf7a71a0fdb75d397ca5826040518082815260200191505060405180910390a2600073ffffffffffffffffffffffffffffffffffffffff168273ffffffffffffffffffffffffffffffffffffffff167fddf252ad1be2c89b69c2b068fc378daa952ba7f163c4a11628f55a4df523b3ef836040518082815260200191505060405180910390a35050565b60008060003373ffffffffffffffffffffffffffffffffffffffff1673ffffffffffffffffffffffffffffffffffffffff16815260200190815260200160002054821115151561436257600080fd5b600073ffffffffffffffffffffffffffffffffffffffff168373ffffffffffffffffffffffffffffffffffffffff161415151561439e57600080fd5b6143ef826000803373ffffffffffffffffffffffffffffffffffffffff1673ffffffffffffffffffffffffffffffffffffffff16815260200190815260200160002054613f4590919063ffffffff16565b6000803373ffffffffffffffffffffffffffffffffffffffff1673ffffffffffffffffffffffffffffffffffffffff16815260200190815260200160002081905550614482826000808673ffffffffffffffffffffffffffffffffffffffff1673ffffffffffffffffffffffffffffffffffffffff16815260200190815260200160002054613f5e90919063ffffffff16565b6000808573ffffffffffffffffffffffffffffffffffffffff1673ffffffffffffffffffffffffffffffffffffffff168152602001908152602001600020819055508273ffffffffffffffffffffffffffffffffffffffff163373ffffffffffffffffffffffffffffffffffffffff167fddf252ad1be2c89b69c2b068fc378daa952ba7f163c4a11628f55a4df523b3ef846040518082815260200191505060405180910390a36001905092915050565b600073ffffffffffffffffffffffffffffffffffffffff168173ffffffffffffffffffffffffffffffffffffffff161415151561456f57600080fd5b8073ffffffffffffffffffffffffffffffffffffffff16600360009054906101000a900473ffffffffffffffffffffffffffffffffffffffff1673ffffffffffffffffffffffffffffffffffffffff167f8be0079c531659141344cd1fd0a4f28419497f9722a3daafe3b4186f6b6457e060405160405180910390a380600360006101000a81548173ffffffffffffffffffffffffffffffffffffffff021916908373ffffffffffffffffffffffffffffffffffffffff16021790555050565b60018260000160008373ffffffffffffffffffffffffffffffffffffffff1673ffffffffffffffffffffffffffffffffffffffff16815260200190815260200160002060006101000a81548160ff0219169083151502179055505050565b60008260000160008373ffffffffffffffffffffffffffffffffffffffff1673ffffffffffffffffffffffffffffffffffffffff16815260200190815260200160002060006101000a81548160ff02191690831515021790555050505600a165627a7a72305820d09b1593d168fc2342a06718ec581197c864f7f13328e3a00f81615b0fbee6050029",
  "source": "pragma solidity ^0.4.23;\n\nimport \"./../node_modules/openzeppelin-solidity/contracts/ownership/Ownable.sol\";\nimport \"./../node_modules/openzeppelin-solidity/contracts/token/ERC20/DetailedERC20.sol\";\nimport \"./../node_modules/openzeppelin-solidity/contracts/token/ERC20/MintableToken.sol\";\nimport \"./../node_modules/openzeppelin-solidity/contracts/token/ERC20/BurnableToken.sol\";\nimport \"./Whitelist.sol\";\nimport \"./Frozenlist.sol\";\nimport \"./Issuable.sol\";\nimport \"./ERCX.sol\";\n\ncontract BasicSecurityToken is ERCX, Ownable, Issuable, DetailedERC20, MintableToken, BurnableToken, Frozenlist, Whitelist {\n\n    constructor(string memory name, string memory symbol, bool enableWhitelist)\n    Ownable()\n    DetailedERC20(name, symbol, 0)\n    Whitelist(enableWhitelist)\n    public {\n        \n    }\n\n    //Modifiers\n\n    modifier onlyOwner() {\n        require(msg.sender == owner, 'Ownable: caller is not the owner');\n        _;\n    }\n    \n    //Public functions (place the view and pure functions last)\n\n    function mint(address account, uint256 amount) public onlyOwner onlyIfNotFrozen(account) onlyIfWhitelisted(account) returns (bool) {\n        super.mint(account, amount);\n        return true;\n    }\n\n    function burn(uint256 amount) public onlyIfNotFrozen(msg.sender) {\n        super._burn(msg.sender, amount);\n    }\n\n    function burnFrom(address account, uint256 amount) public onlyIfNotFrozen(account) {\n        super._burn(account, amount);\n    }\n\n    function transfer(address recipient, uint256 amount) public onlyIfNotFrozen(msg.sender) onlyIfNotFrozen(recipient) onlyIfWhitelisted(recipient) returns (bool) {\n        require(super.transfer(recipient, amount), \"Transfer failed\");\n\n        return true;\n    }\n\n    function transferFrom(address sender, address recipient, uint256 amount) public onlyIfNotFrozen(msg.sender) onlyIfNotFrozen(recipient) onlyIfWhitelisted(recipient) returns (bool) {\n        require(super.transferFrom(sender, recipient, amount), \"Transfer failed\");\n\n        return true;\n    }\n\n    function reassign(address from, address to) public onlyIssuer {\n        uint256 fundsReassigned = balanceOf(from);\n        _transfer(from, to, fundsReassigned);\n\n        emit FundsReassigned(from, to, fundsReassigned);\n    }\n\n    function revoke(address from) public onlyIssuer {\n        uint256 fundsRevoked = balanceOf(from);\n        _transfer(from, msg.sender, fundsRevoked);\n\n        emit FundsRevoked(from, fundsRevoked);\n    }\n\n    //Internal functions\n\n    function _transfer(address _from, address _to, uint256 _value) public returns (bool) {\n        require(_value <= balances[_from]);\n        require(_to != address(0));\n\n        balances[_from] = balances[_from].sub(_value);\n        balances[_to] = balances[_to].add(_value);\n        emit Transfer(_from, _to, _value);\n        return true;\n    }\n\n    //Private functions\n\n}",
  "sourcePath": "/Users/perlets/Documents/projects/ERC-2980-implementation/contracts/BasicSecurityToken.sol",
  "compiler": {
    "name": "solc",
    "version": "0.4.24+commit.e67f0147.Emscripten.clang"
  },
  "schemaVersion": "3.0.17",
  "updatedAt": "2020-09-17T08:53:59.476Z",
  "devdoc": {
    "methods": {
      "addAddressToFrozenlist(address)": {
        "details": "add an address to the frozenlist",
        "params": {
          "_operator": "address"
        },
        "return": "true if the address was added to the frozenlist, false if the address was already in the frozenlist"
      },
      "addAddressToWhitelist(address)": {
        "details": "add an address to the whitelist",
        "params": {
          "_operator": "address"
        },
        "return": "true if the address was added to the whitelist, false if the address was already in the whitelist"
      },
      "addAddressesToFrozenlist(address[])": {
        "details": "add addresses to the frozenlist",
        "params": {
          "_operators": "addresses"
        },
        "return": "true if at least one address was added to the frozenlist, false if all addresses were already in the frozenlist"
      },
      "addAddressesToWhitelist(address[])": {
        "details": "add addresses to the whitelist",
        "params": {
          "_operators": "addresses"
        },
        "return": "true if at least one address was added to the whitelist, false if all addresses were already in the whitelist"
      },
      "addIssuer(address)": {
        "details": "add a new issuer address",
        "params": {
          "_operator": "address"
        },
        "return": "true if the address was not an issuer, false if the address was already an issuer"
      },
      "allowance(address,address)": {
        "details": "Function to check the amount of tokens that an owner allowed to a spender.",
        "params": {
          "_owner": "address The address which owns the funds.",
          "_spender": "address The address which will spend the funds."
        },
        "return": "A uint256 specifying the amount of tokens still available for the spender."
      },
      "approve(address,uint256)": {
        "details": "Approve the passed address to spend the specified amount of tokens on behalf of msg.sender. Beware that changing an allowance with this method brings the risk that someone may use both the old and the new allowance by unfortunate transaction ordering. One possible solution to mitigate this race condition is to first reduce the spender's allowance to 0 and set the desired value afterwards: https://github.com/ethereum/EIPs/issues/20#issuecomment-263524729",
        "params": {
          "_spender": "The address which will spend the funds.",
          "_value": "The amount of tokens to be spent."
        }
      },
      "balanceOf(address)": {
        "details": "Gets the balance of the specified address.",
        "params": {
          "_owner": "The address to query the the balance of."
        },
        "return": "An uint256 representing the amount owned by the passed address."
      },
      "checkRole(address,string)": {
        "details": "reverts if addr does not have role",
        "params": {
          "_operator": "address",
          "_role": "the name of the role // reverts"
        }
      },
      "decreaseApproval(address,uint256)": {
        "details": "Decrease the amount of tokens that an owner allowed to a spender. approve should be called when allowed[_spender] == 0. To decrement allowed value is better to use this function to avoid 2 calls (and wait until the first transaction is mined) From MonolithDAO Token.sol",
        "params": {
          "_spender": "The address which will spend the funds.",
          "_subtractedValue": "The amount of tokens to decrease the allowance by."
        }
      },
      "finishMinting()": {
        "details": "Function to stop minting new tokens.",
        "return": "True if the operation was successful."
      },
      "frozenlist(address)": {
        "details": "getter to determine if address is in frozenlist"
      },
      "hasRole(address,string)": {
        "details": "determine if addr has role",
        "params": {
          "_operator": "address",
          "_role": "the name of the role"
        },
        "return": "bool"
      },
      "increaseApproval(address,uint256)": {
        "details": "Increase the amount of tokens that an owner allowed to a spender. approve should be called when allowed[_spender] == 0. To increment allowed value is better to use this function to avoid 2 calls (and wait until the first transaction is mined) From MonolithDAO Token.sol",
        "params": {
          "_addedValue": "The amount of tokens to increase the allowance by.",
          "_spender": "The address which will spend the funds."
        }
      },
      "isIssuer(address)": {
        "details": "getter to determine if address has issuer role"
      },
      "removeAddressFromFrozenlist(address)": {
        "details": "remove an address from the frozenlist",
        "params": {
          "_operator": "address"
        },
        "return": "true if the address was removed from the frozenlist, false if the address wasn't in the frozenlist in the first place"
      },
      "removeAddressFromWhitelist(address)": {
        "details": "remove an address from the whitelist",
        "params": {
          "_operator": "address"
        },
        "return": "true if the address was removed from the whitelist, false if the address wasn't in the whitelist in the first place"
      },
      "removeAddressesFromFrozenlist(address[])": {
        "details": "remove addresses from the frozenlist",
        "params": {
          "_operators": "addresses"
        },
        "return": "true if at least one address was removed from the frozenlist, false if all addresses weren't in the frozenlist in the first place"
      },
      "removeAddressesFromWhitelist(address[])": {
        "details": "remove addresses from the whitelist",
        "params": {
          "_operators": "addresses"
        },
        "return": "true if at least one address was removed from the whitelist, false if all addresses weren't in the whitelist in the first place"
      },
      "removeIssuer(address)": {
        "details": "remove an address from issuers",
        "params": {
          "_operator": "address"
        },
        "return": "true if the address has been removed from issuers, false if the address wasn't in the issuer list in the first place"
      },
      "renounceOwnership()": {
        "details": "Allows the current owner to relinquish control of the contract."
      },
      "totalSupply()": {
        "details": "Total number of tokens in existence"
      },
      "transferIssuer(address)": {
        "details": "Allows the current issuer to transfer his role to a newIssuer.",
        "params": {
          "_newIssuer": "The address to transfer the issuer role to."
        }
      },
      "transferOwnership(address)": {
        "details": "Allows the current owner to transfer control of the contract to a newOwner.",
        "params": {
          "_newOwner": "The address to transfer ownership to."
        }
      },
      "whitelist(address)": {
        "details": "getter to determine if address is in whitelist"
      }
    }
  },
  "userdoc": {
    "methods": {
      "renounceOwnership()": {
        "notice": "Renouncing to ownership will leave the contract without an owner. It will not be possible to call the functions with the `onlyOwner` modifier anymore."
      }
    }
  }
}