{
  "contractName": "Frozenlist",
  "abi": [
    {
      "constant": true,
      "inputs": [
        {
          "name": "_operator",
          "type": "address"
        },
        {
          "name": "_role",
          "type": "string"
        }
      ],
      "name": "checkRole",
      "outputs": [],
      "payable": false,
      "stateMutability": "view",
      "type": "function"
    },
    {
      "constant": false,
      "inputs": [
        {
          "name": "_operator",
          "type": "address"
        }
      ],
      "name": "addIssuer",
      "outputs": [],
      "payable": false,
      "stateMutability": "nonpayable",
      "type": "function"
    },
    {
      "constant": true,
      "inputs": [
        {
          "name": "_operator",
          "type": "address"
        },
        {
          "name": "_role",
          "type": "string"
        }
      ],
      "name": "hasRole",
      "outputs": [
        {
          "name": "",
          "type": "bool"
        }
      ],
      "payable": false,
      "stateMutability": "view",
      "type": "function"
    },
    {
      "constant": false,
      "inputs": [
        {
          "name": "_operator",
          "type": "address"
        }
      ],
      "name": "removeIssuer",
      "outputs": [],
      "payable": false,
      "stateMutability": "nonpayable",
      "type": "function"
    },
    {
      "constant": false,
      "inputs": [
        {
          "name": "_newIssuer",
          "type": "address"
        }
      ],
      "name": "transferIssuer",
      "outputs": [],
      "payable": false,
      "stateMutability": "nonpayable",
      "type": "function"
    },
    {
      "constant": false,
      "inputs": [],
      "name": "renounceOwnership",
      "outputs": [],
      "payable": false,
      "stateMutability": "nonpayable",
      "type": "function"
    },
    {
      "constant": true,
      "inputs": [],
      "name": "ROLE_ISSUER",
      "outputs": [
        {
          "name": "",
          "type": "string"
        }
      ],
      "payable": false,
      "stateMutability": "view",
      "type": "function"
    },
    {
      "constant": true,
      "inputs": [
        {
          "name": "_addr",
          "type": "address"
        }
      ],
      "name": "isIssuer",
      "outputs": [
        {
          "name": "",
          "type": "bool"
        }
      ],
      "payable": false,
      "stateMutability": "view",
      "type": "function"
    },
    {
      "constant": true,
      "inputs": [],
      "name": "owner",
      "outputs": [
        {
          "name": "",
          "type": "address"
        }
      ],
      "payable": false,
      "stateMutability": "view",
      "type": "function"
    },
    {
      "constant": true,
      "inputs": [],
      "name": "ROLE_FROZENLIST",
      "outputs": [
        {
          "name": "",
          "type": "string"
        }
      ],
      "payable": false,
      "stateMutability": "view",
      "type": "function"
    },
    {
      "constant": false,
      "inputs": [
        {
          "name": "_newOwner",
          "type": "address"
        }
      ],
      "name": "transferOwnership",
      "outputs": [],
      "payable": false,
      "stateMutability": "nonpayable",
      "type": "function"
    },
    {
      "anonymous": false,
      "inputs": [
        {
          "indexed": false,
          "name": "target",
          "type": "address"
        }
      ],
      "name": "FundsFrozen",
      "type": "event"
    },
    {
      "anonymous": false,
      "inputs": [
        {
          "indexed": true,
          "name": "operator",
          "type": "address"
        },
        {
          "indexed": false,
          "name": "role",
          "type": "string"
        }
      ],
      "name": "RoleAdded",
      "type": "event"
    },
    {
      "anonymous": false,
      "inputs": [
        {
          "indexed": true,
          "name": "operator",
          "type": "address"
        },
        {
          "indexed": false,
          "name": "role",
          "type": "string"
        }
      ],
      "name": "RoleRemoved",
      "type": "event"
    },
    {
      "anonymous": false,
      "inputs": [
        {
          "indexed": true,
          "name": "previousOwner",
          "type": "address"
        }
      ],
      "name": "OwnershipRenounced",
      "type": "event"
    },
    {
      "anonymous": false,
      "inputs": [
        {
          "indexed": true,
          "name": "previousOwner",
          "type": "address"
        },
        {
          "indexed": true,
          "name": "newOwner",
          "type": "address"
        }
      ],
      "name": "OwnershipTransferred",
      "type": "event"
    },
    {
      "constant": false,
      "inputs": [
        {
          "name": "_operator",
          "type": "address"
        }
      ],
      "name": "addAddressToFrozenlist",
      "outputs": [],
      "payable": false,
      "stateMutability": "nonpayable",
      "type": "function"
    },
    {
      "constant": true,
      "inputs": [
        {
          "name": "_operator",
          "type": "address"
        }
      ],
      "name": "frozenlist",
      "outputs": [
        {
          "name": "",
          "type": "bool"
        }
      ],
      "payable": false,
      "stateMutability": "view",
      "type": "function"
    },
    {
      "constant": false,
      "inputs": [
        {
          "name": "_operators",
          "type": "address[]"
        }
      ],
      "name": "addAddressesToFrozenlist",
      "outputs": [],
      "payable": false,
      "stateMutability": "nonpayable",
      "type": "function"
    },
    {
      "constant": false,
      "inputs": [
        {
          "name": "_operator",
          "type": "address"
        }
      ],
      "name": "removeAddressFromFrozenlist",
      "outputs": [],
      "payable": false,
      "stateMutability": "nonpayable",
      "type": "function"
    },
    {
      "constant": false,
      "inputs": [
        {
          "name": "_operators",
          "type": "address[]"
        }
      ],
      "name": "removeAddressesFromFrozenlist",
      "outputs": [],
      "payable": false,
      "stateMutability": "nonpayable",
      "type": "function"
    }
  ],
  "bytecode": "0x6080604052336000806101000a81548173ffffffffffffffffffffffffffffffffffffffff021916908373ffffffffffffffffffffffffffffffffffffffff16021790555061159a806100536000396000f3006080604052600436106100e6576000357c0100000000000000000000000000000000000000000000000000000000900463ffffffff1680630988ca8c146100eb5780631afe839c1461017457806320694db0146101b7578063217fe6c6146101fa578063459f659a1461029b57806347bc7093146102de578063664944dc146103215780636849cb9d1461037c578063715018a6146103bf578063794d3850146103d6578063877b9a67146104665780638b4dd229146104c15780638da5cb5b14610527578063951530f71461057e578063a372b26f1461060e578063f2fde38b14610674575b600080fd5b3480156100f757600080fd5b50610172600480360381019080803573ffffffffffffffffffffffffffffffffffffffff169060200190929190803590602001908201803590602001908080601f01602080910402602001604051908101604052809392919081815260200183838082843782019150505050505091929192905050506106b7565b005b34801561018057600080fd5b506101b5600480360381019080803573ffffffffffffffffffffffffffffffffffffffff169060200190929190505050610738565b005b3480156101c357600080fd5b506101f8600480360381019080803573ffffffffffffffffffffffffffffffffffffffff169060200190929190505050610880565b005b34801561020657600080fd5b50610281600480360381019080803573ffffffffffffffffffffffffffffffffffffffff169060200190929190803590602001908201803590602001908080601f016020809104026020016040519081016040528093929190818152602001838380828437820191505050505050919291929050505061091d565b604051808215151515815260200191505060405180910390f35b3480156102a757600080fd5b506102dc600480360381019080803573ffffffffffffffffffffffffffffffffffffffff1690602001909291905050506109a4565b005b3480156102ea57600080fd5b5061031f600480360381019080803573ffffffffffffffffffffffffffffffffffffffff169060200190929190505050610a89565b005b34801561032d57600080fd5b50610362600480360381019080803573ffffffffffffffffffffffffffffffffffffffff169060200190929190505050610b26565b604051808215151515815260200191505060405180910390f35b34801561038857600080fd5b506103bd600480360381019080803573ffffffffffffffffffffffffffffffffffffffff169060200190929190505050610b6e565b005b3480156103cb57600080fd5b506103d4610cce565b005b3480156103e257600080fd5b506103eb610dd0565b6040518080602001828103825283818151815260200191508051906020019080838360005b8381101561042b578082015181840152602081019050610410565b50505050905090810190601f1680156104585780820380516001836020036101000a031916815260200191505b509250505060405180910390f35b34801561047257600080fd5b506104a7600480360381019080803573ffffffffffffffffffffffffffffffffffffffff169060200190929190505050610e09565b604051808215151515815260200191505060405180910390f35b3480156104cd57600080fd5b5061052560048036038101908080359060200190820180359060200190808060200260200160405190810160405280939291908181526020018383602002808284378201915050505050509192919290505050610e51565b005b34801561053357600080fd5b5061053c610f35565b604051808273ffffffffffffffffffffffffffffffffffffffff1673ffffffffffffffffffffffffffffffffffffffff16815260200191505060405180910390f35b34801561058a57600080fd5b50610593610f5a565b6040518080602001828103825283818151815260200191508051906020019080838360005b838110156105d35780820151818401526020810190506105b8565b50505050905090810190601f1680156106005780820380516001836020036101000a031916815260200191505b509250505060405180910390f35b34801561061a57600080fd5b5061067260048036038101908080359060200190820180359060200190808060200260200160405190810160405280939291908181526020018383602002808284378201915050505050509192919290505050610f93565b005b34801561068057600080fd5b506106b5600480360381019080803573ffffffffffffffffffffffffffffffffffffffff169060200190929190505050611077565b005b610734826001836040518082805190602001908083835b6020831015156106f357805182526020820191506020810190506020830392506106ce565b6001836020036101000a03801982511681845116808217855250505050505090500191505090815260200160405180910390206110de90919063ffffffff16565b5050565b61074133610e09565b15156107db576040517f08c379a00000000000000000000000000000000000000000000000000000000081526004018080602001828103825260228152602001807f4973737561626c653a2063616c6c6572206973206e6f7420746865206973737581526020017f657200000000000000000000000000000000000000000000000000000000000081525060400191505060405180910390fd5b61081a816040805190810160405280600a81526020017f66726f7a656e6c697374000000000000000000000000000000000000000000008152506110f7565b7f1b994db1a6d945cc30132de7ed4aa052f750744469da7327b463cc0f94df87c081604051808273ffffffffffffffffffffffffffffffffffffffff1673ffffffffffffffffffffffffffffffffffffffff16815260200191505060405180910390a150565b6000809054906101000a900473ffffffffffffffffffffffffffffffffffffffff1673ffffffffffffffffffffffffffffffffffffffff163373ffffffffffffffffffffffffffffffffffffffff161415156108db57600080fd5b61091a816040805190810160405280600681526020017f69737375657200000000000000000000000000000000000000000000000000008152506110f7565b50565b600061099c836001846040518082805190602001908083835b60208310151561095b5780518252602082019150602081019050602083039250610936565b6001836020036101000a038019825116818451168082178552505050505050905001915050908152602001604051809103902061122b90919063ffffffff16565b905092915050565b6109ad33610e09565b1515610a47576040517f08c379a00000000000000000000000000000000000000000000000000000000081526004018080602001828103825260228152602001807f4973737561626c653a2063616c6c6572206973206e6f7420746865206973737581526020017f657200000000000000000000000000000000000000000000000000000000000081525060400191505060405180910390fd5b610a86816040805190810160405280600a81526020017f66726f7a656e6c69737400000000000000000000000000000000000000000000815250611284565b50565b6000809054906101000a900473ffffffffffffffffffffffffffffffffffffffff1673ffffffffffffffffffffffffffffffffffffffff163373ffffffffffffffffffffffffffffffffffffffff16141515610ae457600080fd5b610b23816040805190810160405280600681526020017f6973737565720000000000000000000000000000000000000000000000000000815250611284565b50565b6000610b67826040805190810160405280600a81526020017f66726f7a656e6c6973740000000000000000000000000000000000000000000081525061091d565b9050919050565b610b7733610e09565b1515610c11576040517f08c379a00000000000000000000000000000000000000000000000000000000081526004018080602001828103825260228152602001807f4973737561626c653a2063616c6c6572206973206e6f7420746865206973737581526020017f657200000000000000000000000000000000000000000000000000000000000081525060400191505060405180910390fd5b600073ffffffffffffffffffffffffffffffffffffffff168173ffffffffffffffffffffffffffffffffffffffff1614151515610c4d57600080fd5b610c8c336040805190810160405280600681526020017f6973737565720000000000000000000000000000000000000000000000000000815250611284565b610ccb816040805190810160405280600681526020017f69737375657200000000000000000000000000000000000000000000000000008152506110f7565b50565b6000809054906101000a900473ffffffffffffffffffffffffffffffffffffffff1673ffffffffffffffffffffffffffffffffffffffff163373ffffffffffffffffffffffffffffffffffffffff16141515610d2957600080fd5b6000809054906101000a900473ffffffffffffffffffffffffffffffffffffffff1673ffffffffffffffffffffffffffffffffffffffff167ff8df31144d9c2f0f6b59d69b8b98abd5459d07f2742c4df920b25aae33c6482060405160405180910390a260008060006101000a81548173ffffffffffffffffffffffffffffffffffffffff021916908373ffffffffffffffffffffffffffffffffffffffff160217905550565b6040805190810160405280600681526020017f697373756572000000000000000000000000000000000000000000000000000081525081565b6000610e4a826040805190810160405280600681526020017f697373756572000000000000000000000000000000000000000000000000000081525061091d565b9050919050565b6000610e5c33610e09565b1515610ef6576040517f08c379a00000000000000000000000000000000000000000000000000000000081526004018080602001828103825260228152602001807f4973737561626c653a2063616c6c6572206973206e6f7420746865206973737581526020017f657200000000000000000000000000000000000000000000000000000000000081525060400191505060405180910390fd5b600090505b8151811015610f3157610f248282815181101515610f1557fe5b906020019060200201516109a4565b8080600101915050610efb565b5050565b6000809054906101000a900473ffffffffffffffffffffffffffffffffffffffff1681565b6040805190810160405280600a81526020017f66726f7a656e6c6973740000000000000000000000000000000000000000000081525081565b6000610f9e33610e09565b1515611038576040517f08c379a00000000000000000000000000000000000000000000000000000000081526004018080602001828103825260228152602001807f4973737561626c653a2063616c6c6572206973206e6f7420746865206973737581526020017f657200000000000000000000000000000000000000000000000000000000000081525060400191505060405180910390fd5b600090505b815181101561107357611066828281518110151561105757fe5b90602001906020020151610738565b808060010191505061103d565b5050565b6000809054906101000a900473ffffffffffffffffffffffffffffffffffffffff1673ffffffffffffffffffffffffffffffffffffffff163373ffffffffffffffffffffffffffffffffffffffff161415156110d257600080fd5b6110db816113b8565b50565b6110e8828261122b565b15156110f357600080fd5b5050565b611174826001836040518082805190602001908083835b602083101515611133578051825260208201915060208101905060208303925061110e565b6001836020036101000a03801982511681845116808217855250505050505090500191505090815260200160405180910390206114b290919063ffffffff16565b8173ffffffffffffffffffffffffffffffffffffffff167fbfec83d64eaa953f2708271a023ab9ee82057f8f3578d548c1a4ba0b5b700489826040518080602001828103825283818151815260200191508051906020019080838360005b838110156111ed5780820151818401526020810190506111d2565b50505050905090810190601f16801561121a5780820380516001836020036101000a031916815260200191505b509250505060405180910390a25050565b60008260000160008373ffffffffffffffffffffffffffffffffffffffff1673ffffffffffffffffffffffffffffffffffffffff16815260200190815260200160002060009054906101000a900460ff16905092915050565b611301826001836040518082805190602001908083835b6020831015156112c0578051825260208201915060208101905060208303925061129b565b6001836020036101000a038019825116818451168082178552505050505050905001915050908152602001604051809103902061151090919063ffffffff16565b8173ffffffffffffffffffffffffffffffffffffffff167fd211483f91fc6eff862467f8de606587a30c8fc9981056f051b897a418df803a826040518080602001828103825283818151815260200191508051906020019080838360005b8381101561137a57808201518184015260208101905061135f565b50505050905090810190601f1680156113a75780820380516001836020036101000a031916815260200191505b509250505060405180910390a25050565b600073ffffffffffffffffffffffffffffffffffffffff168173ffffffffffffffffffffffffffffffffffffffff16141515156113f457600080fd5b8073ffffffffffffffffffffffffffffffffffffffff166000809054906101000a900473ffffffffffffffffffffffffffffffffffffffff1673ffffffffffffffffffffffffffffffffffffffff167f8be0079c531659141344cd1fd0a4f28419497f9722a3daafe3b4186f6b6457e060405160405180910390a3806000806101000a81548173ffffffffffffffffffffffffffffffffffffffff021916908373ffffffffffffffffffffffffffffffffffffffff16021790555050565b60018260000160008373ffffffffffffffffffffffffffffffffffffffff1673ffffffffffffffffffffffffffffffffffffffff16815260200190815260200160002060006101000a81548160ff0219169083151502179055505050565b60008260000160008373ffffffffffffffffffffffffffffffffffffffff1673ffffffffffffffffffffffffffffffffffffffff16815260200190815260200160002060006101000a81548160ff02191690831515021790555050505600a165627a7a723058200716a32630740ce9bd1829bde0e12023a3ad2cdbb8ac101382b2d4cd29b57ee90029",
  "source": "pragma solidity ^0.4.24;\n\nimport \"./Issuable.sol\";\n\n/**\n * @title Frozenlist\n * @dev The Frozenlist contract has a frozen list of addresses, and provides basic authorization control functions.\n * This simplifies the implementation of \"user permissions\".\n */\ncontract Frozenlist is Issuable {\n\n  event FundsFrozen(address target);\n\n  string public constant ROLE_FROZENLIST = \"frozenlist\";\n\n  /**\n   * @dev Throws if operator is frozen.\n   * @param _operator address\n   */\n  modifier onlyIfNotFrozen(address _operator) {\n    require(!hasRole(_operator, ROLE_FROZENLIST), \"Account frozen\");\n    _;\n  }\n\n  /**\n   * @dev add an address to the frozenlist\n   * @param _operator address\n   * @return true if the address was added to the frozenlist, false if the address was already in the frozenlist\n   */\n  function addAddressToFrozenlist(address _operator) public onlyIssuer {\n    addRole(_operator, ROLE_FROZENLIST);\n    emit FundsFrozen(_operator);\n  }\n\n  /**\n   * @dev getter to determine if address is in frozenlist\n   */\n  function frozenlist(address _operator) public view returns (bool) {\n    return hasRole(_operator, ROLE_FROZENLIST);\n  }\n\n  /**\n   * @dev add addresses to the frozenlist\n   * @param _operators addresses\n   * @return true if at least one address was added to the frozenlist,\n   * false if all addresses were already in the frozenlist\n   */\n  function addAddressesToFrozenlist(address[] _operators) public onlyIssuer {\n    for (uint256 i = 0; i < _operators.length; i++) {\n      addAddressToFrozenlist(_operators[i]);\n    }\n  }\n\n  /**\n   * @dev remove an address from the frozenlist\n   * @param _operator address\n   * @return true if the address was removed from the frozenlist,\n   * false if the address wasn't in the frozenlist in the first place\n   */\n  function removeAddressFromFrozenlist(address _operator) public onlyIssuer {\n    removeRole(_operator, ROLE_FROZENLIST);\n  }\n\n  /**\n   * @dev remove addresses from the frozenlist\n   * @param _operators addresses\n   * @return true if at least one address was removed from the frozenlist,\n   * false if all addresses weren't in the frozenlist in the first place\n   */\n  function removeAddressesFromFrozenlist(address[] _operators) public onlyIssuer {\n    for (uint256 i = 0; i < _operators.length; i++) {\n      removeAddressFromFrozenlist(_operators[i]);\n    }\n  }\n\n}\n",
  "sourcePath": "/Users/perlets/Documents/projects/ERC-2980-implementation/contracts/Frozenlist.sol",
  "compiler": {
    "name": "solc",
    "version": "0.4.24+commit.e67f0147.Emscripten.clang"
  },
  "schemaVersion": "3.0.17",
  "updatedAt": "2020-09-17T08:53:59.483Z",
  "devdoc": {
    "methods": {
      "addAddressToFrozenlist(address)": {
        "details": "add an address to the frozenlist",
        "params": {
          "_operator": "address"
        },
        "return": "true if the address was added to the frozenlist, false if the address was already in the frozenlist"
      },
      "addAddressesToFrozenlist(address[])": {
        "details": "add addresses to the frozenlist",
        "params": {
          "_operators": "addresses"
        },
        "return": "true if at least one address was added to the frozenlist, false if all addresses were already in the frozenlist"
      },
      "addIssuer(address)": {
        "details": "add a new issuer address",
        "params": {
          "_operator": "address"
        },
        "return": "true if the address was not an issuer, false if the address was already an issuer"
      },
      "checkRole(address,string)": {
        "details": "reverts if addr does not have role",
        "params": {
          "_operator": "address",
          "_role": "the name of the role // reverts"
        }
      },
      "frozenlist(address)": {
        "details": "getter to determine if address is in frozenlist"
      },
      "hasRole(address,string)": {
        "details": "determine if addr has role",
        "params": {
          "_operator": "address",
          "_role": "the name of the role"
        },
        "return": "bool"
      },
      "isIssuer(address)": {
        "details": "getter to determine if address has issuer role"
      },
      "removeAddressFromFrozenlist(address)": {
        "details": "remove an address from the frozenlist",
        "params": {
          "_operator": "address"
        },
        "return": "true if the address was removed from the frozenlist, false if the address wasn't in the frozenlist in the first place"
      },
      "removeAddressesFromFrozenlist(address[])": {
        "details": "remove addresses from the frozenlist",
        "params": {
          "_operators": "addresses"
        },
        "return": "true if at least one address was removed from the frozenlist, false if all addresses weren't in the frozenlist in the first place"
      },
      "removeIssuer(address)": {
        "details": "remove an address from issuers",
        "params": {
          "_operator": "address"
        },
        "return": "true if the address has been removed from issuers, false if the address wasn't in the issuer list in the first place"
      },
      "renounceOwnership()": {
        "details": "Allows the current owner to relinquish control of the contract."
      },
      "transferIssuer(address)": {
        "details": "Allows the current issuer to transfer his role to a newIssuer.",
        "params": {
          "_newIssuer": "The address to transfer the issuer role to."
        }
      },
      "transferOwnership(address)": {
        "details": "Allows the current owner to transfer control of the contract to a newOwner.",
        "params": {
          "_newOwner": "The address to transfer ownership to."
        }
      }
    },
    "title": "Frozenlist"
  },
  "userdoc": {
    "methods": {
      "renounceOwnership()": {
        "notice": "Renouncing to ownership will leave the contract without an owner. It will not be possible to call the functions with the `onlyOwner` modifier anymore."
      }
    }
  }
}