{
  "contractName": "Issuable",
  "abi": [
    {
      "constant": true,
      "inputs": [
        {
          "name": "_operator",
          "type": "address"
        },
        {
          "name": "_role",
          "type": "string"
        }
      ],
      "name": "checkRole",
      "outputs": [],
      "payable": false,
      "stateMutability": "view",
      "type": "function"
    },
    {
      "constant": true,
      "inputs": [
        {
          "name": "_operator",
          "type": "address"
        },
        {
          "name": "_role",
          "type": "string"
        }
      ],
      "name": "hasRole",
      "outputs": [
        {
          "name": "",
          "type": "bool"
        }
      ],
      "payable": false,
      "stateMutability": "view",
      "type": "function"
    },
    {
      "constant": false,
      "inputs": [],
      "name": "renounceOwnership",
      "outputs": [],
      "payable": false,
      "stateMutability": "nonpayable",
      "type": "function"
    },
    {
      "constant": true,
      "inputs": [],
      "name": "ROLE_ISSUER",
      "outputs": [
        {
          "name": "",
          "type": "string"
        }
      ],
      "payable": false,
      "stateMutability": "view",
      "type": "function"
    },
    {
      "constant": true,
      "inputs": [],
      "name": "owner",
      "outputs": [
        {
          "name": "",
          "type": "address"
        }
      ],
      "payable": false,
      "stateMutability": "view",
      "type": "function"
    },
    {
      "constant": false,
      "inputs": [
        {
          "name": "_newOwner",
          "type": "address"
        }
      ],
      "name": "transferOwnership",
      "outputs": [],
      "payable": false,
      "stateMutability": "nonpayable",
      "type": "function"
    },
    {
      "anonymous": false,
      "inputs": [
        {
          "indexed": true,
          "name": "operator",
          "type": "address"
        },
        {
          "indexed": false,
          "name": "role",
          "type": "string"
        }
      ],
      "name": "RoleAdded",
      "type": "event"
    },
    {
      "anonymous": false,
      "inputs": [
        {
          "indexed": true,
          "name": "operator",
          "type": "address"
        },
        {
          "indexed": false,
          "name": "role",
          "type": "string"
        }
      ],
      "name": "RoleRemoved",
      "type": "event"
    },
    {
      "anonymous": false,
      "inputs": [
        {
          "indexed": true,
          "name": "previousOwner",
          "type": "address"
        }
      ],
      "name": "OwnershipRenounced",
      "type": "event"
    },
    {
      "anonymous": false,
      "inputs": [
        {
          "indexed": true,
          "name": "previousOwner",
          "type": "address"
        },
        {
          "indexed": true,
          "name": "newOwner",
          "type": "address"
        }
      ],
      "name": "OwnershipTransferred",
      "type": "event"
    },
    {
      "constant": true,
      "inputs": [
        {
          "name": "_addr",
          "type": "address"
        }
      ],
      "name": "isIssuer",
      "outputs": [
        {
          "name": "",
          "type": "bool"
        }
      ],
      "payable": false,
      "stateMutability": "view",
      "type": "function"
    },
    {
      "constant": false,
      "inputs": [
        {
          "name": "_operator",
          "type": "address"
        }
      ],
      "name": "addIssuer",
      "outputs": [],
      "payable": false,
      "stateMutability": "nonpayable",
      "type": "function"
    },
    {
      "constant": false,
      "inputs": [
        {
          "name": "_operator",
          "type": "address"
        }
      ],
      "name": "removeIssuer",
      "outputs": [],
      "payable": false,
      "stateMutability": "nonpayable",
      "type": "function"
    },
    {
      "constant": false,
      "inputs": [
        {
          "name": "_newIssuer",
          "type": "address"
        }
      ],
      "name": "transferIssuer",
      "outputs": [],
      "payable": false,
      "stateMutability": "nonpayable",
      "type": "function"
    }
  ],
  "bytecode": "0x6080604052336000806101000a81548173ffffffffffffffffffffffffffffffffffffffff021916908373ffffffffffffffffffffffffffffffffffffffff160217905550610ea5806100536000396000f3006080604052600436106100a4576000357c0100000000000000000000000000000000000000000000000000000000900463ffffffff1680630988ca8c146100a957806320694db014610132578063217fe6c61461017557806347bc7093146102165780636849cb9d14610259578063715018a61461029c578063794d3850146102b3578063877b9a67146103435780638da5cb5b1461039e578063f2fde38b146103f5575b600080fd5b3480156100b557600080fd5b50610130600480360381019080803573ffffffffffffffffffffffffffffffffffffffff169060200190929190803590602001908201803590602001908080601f0160208091040260200160405190810160405280939291908181526020018383808284378201915050505050509192919290505050610438565b005b34801561013e57600080fd5b50610173600480360381019080803573ffffffffffffffffffffffffffffffffffffffff1690602001909291905050506104b9565b005b34801561018157600080fd5b506101fc600480360381019080803573ffffffffffffffffffffffffffffffffffffffff169060200190929190803590602001908201803590602001908080601f0160208091040260200160405190810160405280939291908181526020018383808284378201915050505050509192919290505050610556565b604051808215151515815260200191505060405180910390f35b34801561022257600080fd5b50610257600480360381019080803573ffffffffffffffffffffffffffffffffffffffff1690602001909291905050506105dd565b005b34801561026557600080fd5b5061029a600480360381019080803573ffffffffffffffffffffffffffffffffffffffff16906020019092919050505061067a565b005b3480156102a857600080fd5b506102b16107da565b005b3480156102bf57600080fd5b506102c86108dc565b6040518080602001828103825283818151815260200191508051906020019080838360005b838110156103085780820151818401526020810190506102ed565b50505050905090810190601f1680156103355780820380516001836020036101000a031916815260200191505b509250505060405180910390f35b34801561034f57600080fd5b50610384600480360381019080803573ffffffffffffffffffffffffffffffffffffffff169060200190929190505050610915565b604051808215151515815260200191505060405180910390f35b3480156103aa57600080fd5b506103b361095d565b604051808273ffffffffffffffffffffffffffffffffffffffff1673ffffffffffffffffffffffffffffffffffffffff16815260200191505060405180910390f35b34801561040157600080fd5b50610436600480360381019080803573ffffffffffffffffffffffffffffffffffffffff169060200190929190505050610982565b005b6104b5826001836040518082805190602001908083835b602083101515610474578051825260208201915060208101905060208303925061044f565b6001836020036101000a03801982511681845116808217855250505050505090500191505090815260200160405180910390206109e990919063ffffffff16565b5050565b6000809054906101000a900473ffffffffffffffffffffffffffffffffffffffff1673ffffffffffffffffffffffffffffffffffffffff163373ffffffffffffffffffffffffffffffffffffffff1614151561051457600080fd5b610553816040805190810160405280600681526020017f6973737565720000000000000000000000000000000000000000000000000000815250610a02565b50565b60006105d5836001846040518082805190602001908083835b602083101515610594578051825260208201915060208101905060208303925061056f565b6001836020036101000a0380198251168184511680821785525050505050509050019150509081526020016040518091039020610b3690919063ffffffff16565b905092915050565b6000809054906101000a900473ffffffffffffffffffffffffffffffffffffffff1673ffffffffffffffffffffffffffffffffffffffff163373ffffffffffffffffffffffffffffffffffffffff1614151561063857600080fd5b610677816040805190810160405280600681526020017f6973737565720000000000000000000000000000000000000000000000000000815250610b8f565b50565b61068333610915565b151561071d576040517f08c379a00000000000000000000000000000000000000000000000000000000081526004018080602001828103825260228152602001807f4973737561626c653a2063616c6c6572206973206e6f7420746865206973737581526020017f657200000000000000000000000000000000000000000000000000000000000081525060400191505060405180910390fd5b600073ffffffffffffffffffffffffffffffffffffffff168173ffffffffffffffffffffffffffffffffffffffff161415151561075957600080fd5b610798336040805190810160405280600681526020017f6973737565720000000000000000000000000000000000000000000000000000815250610b8f565b6107d7816040805190810160405280600681526020017f6973737565720000000000000000000000000000000000000000000000000000815250610a02565b50565b6000809054906101000a900473ffffffffffffffffffffffffffffffffffffffff1673ffffffffffffffffffffffffffffffffffffffff163373ffffffffffffffffffffffffffffffffffffffff1614151561083557600080fd5b6000809054906101000a900473ffffffffffffffffffffffffffffffffffffffff1673ffffffffffffffffffffffffffffffffffffffff167ff8df31144d9c2f0f6b59d69b8b98abd5459d07f2742c4df920b25aae33c6482060405160405180910390a260008060006101000a81548173ffffffffffffffffffffffffffffffffffffffff021916908373ffffffffffffffffffffffffffffffffffffffff160217905550565b6040805190810160405280600681526020017f697373756572000000000000000000000000000000000000000000000000000081525081565b6000610956826040805190810160405280600681526020017f6973737565720000000000000000000000000000000000000000000000000000815250610556565b9050919050565b6000809054906101000a900473ffffffffffffffffffffffffffffffffffffffff1681565b6000809054906101000a900473ffffffffffffffffffffffffffffffffffffffff1673ffffffffffffffffffffffffffffffffffffffff163373ffffffffffffffffffffffffffffffffffffffff161415156109dd57600080fd5b6109e681610cc3565b50565b6109f38282610b36565b15156109fe57600080fd5b5050565b610a7f826001836040518082805190602001908083835b602083101515610a3e5780518252602082019150602081019050602083039250610a19565b6001836020036101000a0380198251168184511680821785525050505050509050019150509081526020016040518091039020610dbd90919063ffffffff16565b8173ffffffffffffffffffffffffffffffffffffffff167fbfec83d64eaa953f2708271a023ab9ee82057f8f3578d548c1a4ba0b5b700489826040518080602001828103825283818151815260200191508051906020019080838360005b83811015610af8578082015181840152602081019050610add565b50505050905090810190601f168015610b255780820380516001836020036101000a031916815260200191505b509250505060405180910390a25050565b60008260000160008373ffffffffffffffffffffffffffffffffffffffff1673ffffffffffffffffffffffffffffffffffffffff16815260200190815260200160002060009054906101000a900460ff16905092915050565b610c0c826001836040518082805190602001908083835b602083101515610bcb5780518252602082019150602081019050602083039250610ba6565b6001836020036101000a0380198251168184511680821785525050505050509050019150509081526020016040518091039020610e1b90919063ffffffff16565b8173ffffffffffffffffffffffffffffffffffffffff167fd211483f91fc6eff862467f8de606587a30c8fc9981056f051b897a418df803a826040518080602001828103825283818151815260200191508051906020019080838360005b83811015610c85578082015181840152602081019050610c6a565b50505050905090810190601f168015610cb25780820380516001836020036101000a031916815260200191505b509250505060405180910390a25050565b600073ffffffffffffffffffffffffffffffffffffffff168173ffffffffffffffffffffffffffffffffffffffff1614151515610cff57600080fd5b8073ffffffffffffffffffffffffffffffffffffffff166000809054906101000a900473ffffffffffffffffffffffffffffffffffffffff1673ffffffffffffffffffffffffffffffffffffffff167f8be0079c531659141344cd1fd0a4f28419497f9722a3daafe3b4186f6b6457e060405160405180910390a3806000806101000a81548173ffffffffffffffffffffffffffffffffffffffff021916908373ffffffffffffffffffffffffffffffffffffffff16021790555050565b60018260000160008373ffffffffffffffffffffffffffffffffffffffff1673ffffffffffffffffffffffffffffffffffffffff16815260200190815260200160002060006101000a81548160ff0219169083151502179055505050565b60008260000160008373ffffffffffffffffffffffffffffffffffffffff1673ffffffffffffffffffffffffffffffffffffffff16815260200190815260200160002060006101000a81548160ff02191690831515021790555050505600a165627a7a723058203972f66ba6c9c5b457cbcb767d3b2078128b5a09eada66fb5845012a7a5c28910029",
  "source": "pragma solidity ^0.4.24;\n\n\nimport \"./../node_modules/openzeppelin-solidity/contracts/ownership/Ownable.sol\";\nimport \"./../node_modules/openzeppelin-solidity/contracts/access/rbac/RBAC.sol\";\n\n\n/**\n * @title Issuable\n * @dev The Issuable contract defines the issuer role who can perform certain kind of actions\n * even if he is not the owner.\n * An issuer can transfer his role to a new address.\n */\ncontract Issuable is Ownable, RBAC {\n  string public constant ROLE_ISSUER = \"issuer\";\n\n  /**\n   * @dev Throws if called by any account that's not a issuer.\n   */\n  modifier onlyIssuer() {\n    require(isIssuer(msg.sender), 'Issuable: caller is not the issuer');\n    _;\n  }\n\n  modifier onlyOwnerOrIssuer() {\n    require(msg.sender == owner || isIssuer(msg.sender), 'Issuable: caller is not the issuer or the owner');\n    _;\n  }\n\n  /**\n   * @dev getter to determine if address has issuer role\n   */\n  function isIssuer(address _addr) public view returns (bool) {\n    return hasRole(_addr, ROLE_ISSUER);\n  }\n\n  /**\n   * @dev add a new issuer address\n   * @param _operator address\n   * @return true if the address was not an issuer, false if the address was already an issuer\n   */\n  function addIssuer(address _operator) public onlyOwner {\n    addRole(_operator, ROLE_ISSUER);\n  }\n\n    /**\n   * @dev remove an address from issuers\n   * @param _operator address\n   * @return true if the address has been removed from issuers,\n   * false if the address wasn't in the issuer list in the first place\n   */\n  function removeIssuer(address _operator) public onlyOwner {\n    removeRole(_operator, ROLE_ISSUER);\n  }\n\n  /**\n   * @dev Allows the current issuer to transfer his role to a newIssuer.\n   * @param _newIssuer The address to transfer the issuer role to.\n   */\n  function transferIssuer(address _newIssuer) public onlyIssuer {\n    require(_newIssuer != address(0));\n    removeRole(msg.sender, ROLE_ISSUER);\n    addRole(_newIssuer, ROLE_ISSUER);\n  }\n\n}\n",
  "sourcePath": "/Users/perlets/Documents/projects/ERC-2980-implementation/contracts/Issuable.sol",
  "compiler": {
    "name": "solc",
    "version": "0.4.24+commit.e67f0147.Emscripten.clang"
  },
  "schemaVersion": "3.0.17",
  "updatedAt": "2020-09-17T08:53:59.485Z",
  "devdoc": {
    "methods": {
      "addIssuer(address)": {
        "details": "add a new issuer address",
        "params": {
          "_operator": "address"
        },
        "return": "true if the address was not an issuer, false if the address was already an issuer"
      },
      "checkRole(address,string)": {
        "details": "reverts if addr does not have role",
        "params": {
          "_operator": "address",
          "_role": "the name of the role // reverts"
        }
      },
      "hasRole(address,string)": {
        "details": "determine if addr has role",
        "params": {
          "_operator": "address",
          "_role": "the name of the role"
        },
        "return": "bool"
      },
      "isIssuer(address)": {
        "details": "getter to determine if address has issuer role"
      },
      "removeIssuer(address)": {
        "details": "remove an address from issuers",
        "params": {
          "_operator": "address"
        },
        "return": "true if the address has been removed from issuers, false if the address wasn't in the issuer list in the first place"
      },
      "renounceOwnership()": {
        "details": "Allows the current owner to relinquish control of the contract."
      },
      "transferIssuer(address)": {
        "details": "Allows the current issuer to transfer his role to a newIssuer.",
        "params": {
          "_newIssuer": "The address to transfer the issuer role to."
        }
      },
      "transferOwnership(address)": {
        "details": "Allows the current owner to transfer control of the contract to a newOwner.",
        "params": {
          "_newOwner": "The address to transfer ownership to."
        }
      }
    },
    "title": "Issuable"
  },
  "userdoc": {
    "methods": {
      "renounceOwnership()": {
        "notice": "Renouncing to ownership will leave the contract without an owner. It will not be possible to call the functions with the `onlyOwner` modifier anymore."
      }
    }
  }
}